{
  "contractName": "Sweepstake",
  "abi": [
    {
      "inputs": [
        {
          "name": "_name",
          "type": "string"
        },
        {
          "name": "_prize",
          "type": "uint256"
        }
      ],
      "payable": false,
      "stateMutability": "nonpayable",
      "type": "constructor"
    },
    {
      "payable": true,
      "stateMutability": "payable",
      "type": "fallback"
    },
    {
      "anonymous": false,
      "inputs": [
        {
          "indexed": false,
          "name": "_name",
          "type": "string"
        }
      ],
      "name": "LogOpened",
      "type": "event"
    },
    {
      "anonymous": false,
      "inputs": [
        {
          "indexed": false,
          "name": "_winner",
          "type": "address"
        }
      ],
      "name": "LogSelected",
      "type": "event"
    },
    {
      "anonymous": false,
      "inputs": [
        {
          "indexed": false,
          "name": "_winner",
          "type": "address"
        }
      ],
      "name": "LogClaimed",
      "type": "event"
    },
    {
      "anonymous": false,
      "inputs": [
        {
          "indexed": false,
          "name": "_player",
          "type": "address"
        }
      ],
      "name": "LogEntered",
      "type": "event"
    },
    {
      "anonymous": false,
      "inputs": [
        {
          "indexed": false,
          "name": "_number",
          "type": "uint256"
        }
      ],
      "name": "LogRandomNumber",
      "type": "event"
    },
    {
      "constant": false,
      "inputs": [],
      "name": "enterSweepstake",
      "outputs": [],
      "payable": false,
      "stateMutability": "nonpayable",
      "type": "function"
    },
    {
      "constant": false,
      "inputs": [],
      "name": "selectWinner",
      "outputs": [],
      "payable": false,
      "stateMutability": "nonpayable",
      "type": "function"
    },
    {
      "constant": true,
      "inputs": [],
      "name": "getOwner",
      "outputs": [
        {
          "name": "",
          "type": "address"
        }
      ],
      "payable": false,
      "stateMutability": "view",
      "type": "function"
    },
    {
      "constant": true,
      "inputs": [],
      "name": "getWinner",
      "outputs": [
        {
          "name": "",
          "type": "address"
        }
      ],
      "payable": false,
      "stateMutability": "view",
      "type": "function"
    },
    {
      "constant": true,
      "inputs": [],
      "name": "getPlayers",
      "outputs": [
        {
          "name": "",
          "type": "address[]"
        }
      ],
      "payable": false,
      "stateMutability": "view",
      "type": "function"
    },
    {
      "constant": false,
      "inputs": [],
      "name": "claimPrize",
      "outputs": [],
      "payable": true,
      "stateMutability": "payable",
      "type": "function"
    },
    {
      "constant": true,
      "inputs": [],
      "name": "getBalance",
      "outputs": [
        {
          "name": "",
          "type": "uint256"
        }
      ],
      "payable": false,
      "stateMutability": "view",
      "type": "function"
    }
  ],
  "bytecode": "0x608060405234801561001057600080fd5b5060405162000da938038062000da98339810180604052604081101561003557600080fd5b81019080805164010000000081111561004d57600080fd5b8281019050602081018481111561006357600080fd5b815185600182028301116401000000008211171561008057600080fd5b505092919060200180519060200190929190505050336000806101000a81548173ffffffffffffffffffffffffffffffffffffffff021916908373ffffffffffffffffffffffffffffffffffffffff16021790555081600190805190602001906100eb9291906101d8565b50806002819055506000600460146101000a81548160ff0219169083600281111561011257fe5b02179055507f2e01f2236e12f88dec9f1ed86d70b02e106bbbdb566a1bf101f117ebb2182796600160405180806020018281038252838181546001816001161561010002031660029004815260200191508054600181600116156101000203166002900480156101c35780601f10610198576101008083540402835291602001916101c3565b820191906000526020600020905b8154815290600101906020018083116101a657829003601f168201915b50509250505060405180910390a1505061027d565b828054600181600116156101000203166002900490600052602060002090601f016020900481019282601f1061021957805160ff1916838001178555610247565b82800160010185558215610247579182015b8281111561024657825182559160200191906001019061022b565b5b5090506102549190610258565b5090565b61027a91905b8082111561027657600081600090555060010161025e565b5090565b90565b610b1c806200028d6000396000f3fe6080604052600436106100705760003560e01c806370740ac91161004e57806370740ac9146100cb578063893d20e8146100d55780638b5b9ccc1461012c5780638e7ea5b21461019857610070565b806312065fe01461007257806333a99e041461009d5780635e105118146100b4575b005b34801561007e57600080fd5b506100876101ef565b6040518082815260200191505060405180910390f35b3480156100a957600080fd5b506100b261020e565b005b3480156100c057600080fd5b506100c9610582565b005b6100d361078e565b005b3480156100e157600080fd5b506100ea6109a1565b604051808273ffffffffffffffffffffffffffffffffffffffff1673ffffffffffffffffffffffffffffffffffffffff16815260200191505060405180910390f35b34801561013857600080fd5b506101416109ca565b6040518080602001828103825283818151815260200191508051906020019060200280838360005b83811015610184578082015181840152602081019050610169565b505050509050019250505060405180910390f35b3480156101a457600080fd5b506101ad610a58565b604051808273ffffffffffffffffffffffffffffffffffffffff1673ffffffffffffffffffffffffffffffffffffffff16815260200191505060405180910390f35b60003073ffffffffffffffffffffffffffffffffffffffff1631905090565b6000809054906101000a900473ffffffffffffffffffffffffffffffffffffffff1673ffffffffffffffffffffffffffffffffffffffff163373ffffffffffffffffffffffffffffffffffffffff16146102d0576040517f08c379a00000000000000000000000000000000000000000000000000000000081526004018080602001828103825260138152602001807f43616c6c6572206973206e6f74206f776e65720000000000000000000000000081525060200191505060405180910390fd5b600060028111156102dd57fe5b600460149054906101000a900460ff1660028111156102f857fe5b1461034e576040517f08c379a0000000000000000000000000000000000000000000000000000000008152600401808060200182810382526021815260200180610a836021913960400191505060405180910390fd5b6000600380549050116103ac576040517f08c379a0000000000000000000000000000000000000000000000000000000008152600401808060200182810382526024815260200180610acd6024913960400191505060405180910390fd5b6000600380549050423344604051602001808481526020018373ffffffffffffffffffffffffffffffffffffffff1673ffffffffffffffffffffffffffffffffffffffff1660601b815260140182815260200193505050506040516020818303038152906040528051906020012060001c8161042457fe5b0690506001600460146101000a81548160ff0219169083600281111561044657fe5b02179055506003818154811061045857fe5b9060005260206000200160009054906101000a900473ffffffffffffffffffffffffffffffffffffffff16600460006101000a81548173ffffffffffffffffffffffffffffffffffffffff021916908373ffffffffffffffffffffffffffffffffffffffff1602179055507ff154de07b46369267ad5acd9c4755862e503506514727e21e18319e8f9d83945600460009054906101000a900473ffffffffffffffffffffffffffffffffffffffff16604051808273ffffffffffffffffffffffffffffffffffffffff1673ffffffffffffffffffffffffffffffffffffffff16815260200191505060405180910390a17f4034cea00588331775106b3bb0531716336a0091d3134d70f70abc1208b4070b816040518082815260200191505060405180910390a150565b6000809054906101000a900473ffffffffffffffffffffffffffffffffffffffff1673ffffffffffffffffffffffffffffffffffffffff163373ffffffffffffffffffffffffffffffffffffffff161415610645576040517f08c379a000000000000000000000000000000000000000000000000000000000815260040180806020018281038252600f8152602001807f43616c6c6572206973206f776e6572000000000000000000000000000000000081525060200191505060405180910390fd5b6000600281111561065257fe5b600460149054906101000a900460ff16600281111561066d57fe5b146106c3576040517f08c379a0000000000000000000000000000000000000000000000000000000008152600401808060200182810382526021815260200180610a836021913960400191505060405180910390fd5b60033390806001815401808255809150509060018203906000526020600020016000909192909190916101000a81548173ffffffffffffffffffffffffffffffffffffffff021916908373ffffffffffffffffffffffffffffffffffffffff160217905550507f3ac3d20023090ed6961aaf170d74ceded3a1ce92b23deb8e0df0d4d3440b186c33604051808273ffffffffffffffffffffffffffffffffffffffff1673ffffffffffffffffffffffffffffffffffffffff16815260200191505060405180910390a1565b6001600281111561079b57fe5b600460149054906101000a900460ff1660028111156107b657fe5b1461080c576040517f08c379a0000000000000000000000000000000000000000000000000000000008152600401808060200182810382526029815260200180610aa46029913960400191505060405180910390fd5b600460009054906101000a900473ffffffffffffffffffffffffffffffffffffffff1673ffffffffffffffffffffffffffffffffffffffff163373ffffffffffffffffffffffffffffffffffffffff16146108cf576040517f08c379a00000000000000000000000000000000000000000000000000000000081526004018080602001828103825260188152602001807f43616c6c6572206973206e6f74207468652077696e6e6572000000000000000081525060200191505060405180910390fd5b6002600460146101000a81548160ff021916908360028111156108ee57fe5b02179055503373ffffffffffffffffffffffffffffffffffffffff166108fc6002549081150290604051600060405180830381858888f1935050505015801561093b573d6000803e3d6000fd5b507f28ada6009aa6a16ffab5c7cad39926ce841e25f5b3886d405a11d0e3c1ac204e33604051808273ffffffffffffffffffffffffffffffffffffffff1673ffffffffffffffffffffffffffffffffffffffff16815260200191505060405180910390a1565b60008060009054906101000a900473ffffffffffffffffffffffffffffffffffffffff16905090565b60606003805480602002602001604051908101604052809291908181526020018280548015610a4e57602002820191906000526020600020905b8160009054906101000a900473ffffffffffffffffffffffffffffffffffffffff1673ffffffffffffffffffffffffffffffffffffffff1681526020019060010190808311610a04575b5050505050905090565b6000600460009054906101000a900473ffffffffffffffffffffffffffffffffffffffff1690509056fe53776565707374616b65206973206e6f74206f70656e656420746f20656e74657257696e6e6572206973206e6f742073656c656374656420666f72207468652053776565707374616b6554686572652773206e6f20706c6179657220696e20746869732073776565707374616b65a165627a7a723058202c22d77049502ceaa1c9247cbc11fc09039bd43188b50caebafe8d09905f650b0029",
  "source": "pragma solidity ^0.5.0;\n\ncontract Sweepstake {\n    address owner;          // address of owner\n    string name;            // name of sweepstake\n    uint prize;             // prize of sweepstake\n    address[] players;      // all player that entered the sweepstake\n    address winner;         // winner selected\n    State state;            // state of the contract\n\n    // three states of the contract, open to enter, winner is selected, prize is claimed\n    enum State {Opened, Selected, Claimed}\n\n    /// @notice log sweepstake state Opened\n    /// @param _name name of sweepstake\n    event LogOpened (string _name);\n\n    /// @notice log sweepstake state Selected\n    /// @param _winner player was selected to be the winner\n    event LogSelected (address _winner);\n\n    /// @notice log sweepstake state Claimed\n    /// @param _winner winner that claimed the prize\n    event LogClaimed (address _winner);\n\n    /// @notice log caller entered into sweepstake\n    /// @param _player player entered into sweepstake\n    event LogEntered (address _player);\n\n    /// @notice log random number selected\n    /// @param _number random number selected\n    event LogRandomNumber(uint _number);\n\n    /// @notice constructor creates a new sweepstake\n    /// @param _name name of the sweepstake\n    /// @param _prize the prize of the prize\n    /// @dev emit LogOpened event\n    constructor (string memory _name, uint _prize)\n        public\n    {\n        owner = msg.sender;\n        name = _name;\n        prize = _prize;\n        state = State.Opened;\n        emit LogOpened(name);\n    }\n\n    /// @notice accept funds\n    function() external payable {}\n\n    /// @notice modifier to check if caller is owner\n    modifier isOwner() {\n        require (\n            msg.sender == owner,\n            \"Caller is not owner\"\n        );\n        _;\n    }\n\n    /// @notice modifier to check if caller is not owner\n    modifier isNotOwner() {\n        require (\n            msg.sender != owner,\n            \"Caller is owner\"\n        );\n        _;\n    }\n\n    /// @notice modifier to check if sweepstake is opened to enter\n    modifier isOpened() {\n        require (\n            state == State.Opened,\n            \"Sweepstake is not opened to enter\"\n        );\n        _;\n    }\n\n    /// @notice modifier to check if winner is selected\n    modifier isSelected() {\n        require (\n            state == State.Selected,\n            \"Winner is not selected for the Sweepstake\"\n        );\n        _;\n    }\n\n    /// @notice modifier to check if caller is winner\n    modifier isWinner() {\n        require (\n            msg.sender == winner,\n            \"Caller is not the winner\"\n        );\n        _;\n    }\n\n    /// @notice modifier check if sweepstake has players entered\n    modifier hasPlayers() {\n        require (\n            players.length > 0,\n            \"There's no player in this sweepstake\"\n        );\n        _;\n    }\n\n    /// @notice function to enter sweepstake\n    /// @dev emit LogEntered event\n    function enterSweepstake()\n        public\n        isNotOwner\n        isOpened\n    {\n        players.push(msg.sender);\n        emit LogEntered(msg.sender);\n    }\n\n    /// @notice funnction to select a winner among players randomly\n    /// @dev emit LogSelected event\n    /// @dev emit LogRandomNumber event\n    function selectWinner()\n        public\n        isOwner\n        isOpened\n        hasPlayers\n    {\n        // random number selected based string encoded using time, caller address and block difficulty\n        uint randomNumber = uint(keccak256(abi.encodePacked(now, msg.sender, block.difficulty))) % players.length;\n        \n        state = State.Selected;\n        winner = players[randomNumber];\n\n        emit LogSelected(winner);\n        emit LogRandomNumber(randomNumber);\n    }\n\n    /// @notice function returns owner of the sweepstake\n    /// @return sweepstake owner address\n    function getOwner()\n        public\n        view\n        returns (address)\n    {\n        return owner;\n    }\n\n    /// @notice function returns winner of the sweepstake\n    /// @return winner address\n    function getWinner()\n        public\n        view\n        returns (address)\n    {\n        return winner;\n    }\n\n    /// @notice function returns a list of players that entered the sweepstake\n    /// @return an array of addresses of players\n    function getPlayers()\n        public\n        view\n        returns (address[] memory)\n    {\n        return players;\n    }\n\n    /// @notice function allows winner to claim prize of sweepstake\n    /// @dev emit LogClaimed event\n    function claimPrize()\n        public\n        payable\n        isSelected\n        isWinner\n    {\n        state = State.Claimed;\n        msg.sender.transfer(prize);\n        emit LogClaimed(msg.sender);\n    }\n\n    /// @notice function returns balance of sweepstake\n    /// @return balance of sweepstake\n    function getBalance()\n        public\n        view\n        returns (uint)\n    {\n        return address(this).balance;\n    }\n}",
  "sourcePath": "/Users/csu/dev/sweepstake/contracts/Sweepstake.sol",
  "compiler": {
    "name": "solc",
    "version": "0.5.8+commit.23d335f2.Emscripten.clang"
  },
  "schemaVersion": "3.0.11",
  "updatedAt": "2019-07-31T01:04:35.867Z",
  "devdoc": {
    "methods": {
      "claimPrize()": {
        "details": "emit LogClaimed event"
      },
      "constructor": {
        "details": "emit LogOpened event",
        "params": {
          "_name": "name of the sweepstake",
          "_prize": "the prize of the prize"
        }
      },
      "enterSweepstake()": {
        "details": "emit LogEntered event"
      },
      "getBalance()": {
        "return": "balance of sweepstake"
      },
      "getOwner()": {
        "return": "sweepstake owner address"
      },
      "getPlayers()": {
        "return": "an array of addresses of players"
      },
      "getWinner()": {
        "return": "winner address"
      },
      "selectWinner()": {
        "details": "emit LogSelected eventemit LogRandomNumber event"
      }
    }
  },
  "userdoc": {
    "methods": {
      "claimPrize()": {
        "notice": "function allows winner to claim prize of sweepstake"
      },
      "constructor": "constructor creates a new sweepstake",
      "enterSweepstake()": {
        "notice": "function to enter sweepstake"
      },
      "getBalance()": {
        "notice": "function returns balance of sweepstake"
      },
      "getOwner()": {
        "notice": "function returns owner of the sweepstake"
      },
      "getPlayers()": {
        "notice": "function returns a list of players that entered the sweepstake"
      },
      "getWinner()": {
        "notice": "function returns winner of the sweepstake"
      },
      "selectWinner()": {
        "notice": "funnction to select a winner among players randomly"
      }
    }
  }
}