{
  "contractName": "SweepstakeFactory",
  "abi": [
    {
      "constant": false,
      "inputs": [],
      "name": "unpause",
      "outputs": [],
      "payable": false,
      "stateMutability": "nonpayable",
      "type": "function"
    },
    {
      "constant": true,
      "inputs": [
        {
          "name": "account",
          "type": "address"
        }
      ],
      "name": "isPauser",
      "outputs": [
        {
          "name": "",
          "type": "bool"
        }
      ],
      "payable": false,
      "stateMutability": "view",
      "type": "function"
    },
    {
      "constant": true,
      "inputs": [],
      "name": "paused",
      "outputs": [
        {
          "name": "",
          "type": "bool"
        }
      ],
      "payable": false,
      "stateMutability": "view",
      "type": "function"
    },
    {
      "constant": false,
      "inputs": [],
      "name": "renouncePauser",
      "outputs": [],
      "payable": false,
      "stateMutability": "nonpayable",
      "type": "function"
    },
    {
      "constant": false,
      "inputs": [
        {
          "name": "account",
          "type": "address"
        }
      ],
      "name": "addPauser",
      "outputs": [],
      "payable": false,
      "stateMutability": "nonpayable",
      "type": "function"
    },
    {
      "constant": false,
      "inputs": [],
      "name": "pause",
      "outputs": [],
      "payable": false,
      "stateMutability": "nonpayable",
      "type": "function"
    },
    {
      "inputs": [],
      "payable": false,
      "stateMutability": "nonpayable",
      "type": "constructor"
    },
    {
      "anonymous": false,
      "inputs": [
        {
          "indexed": false,
          "name": "sweepstake",
          "type": "address"
        },
        {
          "indexed": false,
          "name": "numSweepstakes",
          "type": "uint256"
        },
        {
          "indexed": false,
          "name": "sweepstakes",
          "type": "address[]"
        }
      ],
      "name": "LogSweepstakeCreated",
      "type": "event"
    },
    {
      "anonymous": false,
      "inputs": [
        {
          "indexed": false,
          "name": "account",
          "type": "address"
        }
      ],
      "name": "Paused",
      "type": "event"
    },
    {
      "anonymous": false,
      "inputs": [
        {
          "indexed": false,
          "name": "account",
          "type": "address"
        }
      ],
      "name": "Unpaused",
      "type": "event"
    },
    {
      "anonymous": false,
      "inputs": [
        {
          "indexed": true,
          "name": "account",
          "type": "address"
        }
      ],
      "name": "PauserAdded",
      "type": "event"
    },
    {
      "anonymous": false,
      "inputs": [
        {
          "indexed": true,
          "name": "account",
          "type": "address"
        }
      ],
      "name": "PauserRemoved",
      "type": "event"
    },
    {
      "constant": false,
      "inputs": [
        {
          "name": "_name",
          "type": "string"
        },
        {
          "name": "_prize",
          "type": "uint256"
        }
      ],
      "name": "createSweepstake",
      "outputs": [
        {
          "name": "",
          "type": "address"
        }
      ],
      "payable": true,
      "stateMutability": "payable",
      "type": "function"
    },
    {
      "constant": true,
      "inputs": [],
      "name": "getOwner",
      "outputs": [
        {
          "name": "",
          "type": "address"
        }
      ],
      "payable": false,
      "stateMutability": "view",
      "type": "function"
    },
    {
      "constant": true,
      "inputs": [],
      "name": "getSweepstakes",
      "outputs": [
        {
          "name": "",
          "type": "address[]"
        }
      ],
      "payable": false,
      "stateMutability": "view",
      "type": "function"
    }
  ],
  "bytecode": "0x608060405234801561001057600080fd5b506100203361008060201b60201c565b6000600160006101000a81548160ff021916908315150217905550336001806101000a81548173ffffffffffffffffffffffffffffffffffffffff021916908373ffffffffffffffffffffffffffffffffffffffff16021790555061029d565b6100988160006100de60201b610dca1790919060201c565b8073ffffffffffffffffffffffffffffffffffffffff167f6719d08c1888103bea251a4ed56406bd0c3e69723c8a1686e017e7bbe159b6f860405160405180910390a250565b6100ee82826101bf60201b60201c565b15610161576040517f08c379a000000000000000000000000000000000000000000000000000000000815260040180806020018281038252601f8152602001807f526f6c65733a206163636f756e7420616c72656164792068617320726f6c650081525060200191505060405180910390fd5b60018260000160008373ffffffffffffffffffffffffffffffffffffffff1673ffffffffffffffffffffffffffffffffffffffff16815260200190815260200160002060006101000a81548160ff0219169083151502179055505050565b60008073ffffffffffffffffffffffffffffffffffffffff168273ffffffffffffffffffffffffffffffffffffffff161415610246576040517f08c379a0000000000000000000000000000000000000000000000000000000008152600401808060200182810382526022815260200180611fb26022913960400191505060405180910390fd5b8260000160008373ffffffffffffffffffffffffffffffffffffffff1673ffffffffffffffffffffffffffffffffffffffff16815260200190815260200160002060009054906101000a900460ff16905092915050565b611d06806102ac6000396000f3fe6080604052600436106100865760003560e01c806382dc1ec41161005957806382dc1ec4146101515780638456cb59146101a2578063893d20e8146101b9578063b83e863d14610210578063c154c5b91461027c57610086565b80633f4ba83a1461008b57806346fbf68e146100a25780635c975abb1461010b5780636ef8d66d1461013a575b600080fd5b34801561009757600080fd5b506100a0610381565b005b3480156100ae57600080fd5b506100f1600480360360208110156100c557600080fd5b81019080803573ffffffffffffffffffffffffffffffffffffffff1690602001909291905050506104e2565b604051808215151515815260200191505060405180910390f35b34801561011757600080fd5b506101206104ff565b604051808215151515815260200191505060405180910390f35b34801561014657600080fd5b5061014f610516565b005b34801561015d57600080fd5b506101a06004803603602081101561017457600080fd5b81019080803573ffffffffffffffffffffffffffffffffffffffff169060200190929190505050610521565b005b3480156101ae57600080fd5b506101b761058c565b005b3480156101c557600080fd5b506101ce6106ed565b604051808273ffffffffffffffffffffffffffffffffffffffff1673ffffffffffffffffffffffffffffffffffffffff16815260200191505060405180910390f35b34801561021c57600080fd5b50610225610716565b6040518080602001828103825283818151815260200191508051906020019060200280838360005b8381101561026857808201518184015260208101905061024d565b505050509050019250505060405180910390f35b61033f6004803603604081101561029257600080fd5b81019080803590602001906401000000008111156102af57600080fd5b8201836020820111156102c157600080fd5b803590602001918460018302840111640100000000831117156102e357600080fd5b91908080601f016020809104026020016040519081016040528093929190818152602001838380828437600081840152601f19601f820116905080830192505050505050509192919290803590602001909291905050506107a4565b604051808273ffffffffffffffffffffffffffffffffffffffff1673ffffffffffffffffffffffffffffffffffffffff16815260200191505060405180910390f35b61038a336104e2565b6103e0576040517f08c379a000000000000000000000000000000000000000000000000000000000815260040180806020018281038252603081526020018062001c686030913960400191505060405180910390fd5b600160009054906101000a900460ff16610462576040517f08c379a00000000000000000000000000000000000000000000000000000000081526004018080602001828103825260148152602001807f5061757361626c653a206e6f742070617573656400000000000000000000000081525060200191505060405180910390fd5b6000600160006101000a81548160ff0219169083151502179055507f5db9ee0a495bf2e6ff9c91a7834c1ba4fdd244a5e8aa4e537bd38aeae4b073aa33604051808273ffffffffffffffffffffffffffffffffffffffff1673ffffffffffffffffffffffffffffffffffffffff16815260200191505060405180910390a1565b60006104f8826000610b7990919063ffffffff16565b9050919050565b6000600160009054906101000a900460ff16905090565b61051f33610c58565b565b61052a336104e2565b610580576040517f08c379a000000000000000000000000000000000000000000000000000000000815260040180806020018281038252603081526020018062001c686030913960400191505060405180910390fd5b61058981610cb2565b50565b610595336104e2565b6105eb576040517f08c379a000000000000000000000000000000000000000000000000000000000815260040180806020018281038252603081526020018062001c686030913960400191505060405180910390fd5b600160009054906101000a900460ff161561066e576040517f08c379a00000000000000000000000000000000000000000000000000000000081526004018080602001828103825260108152602001807f5061757361626c653a207061757365640000000000000000000000000000000081525060200191505060405180910390fd5b60018060006101000a81548160ff0219169083151502179055507f62e78cea01bee320cd4e420270b5ea74000d11b0c9f74754ebdbfc544b05a25833604051808273ffffffffffffffffffffffffffffffffffffffff1673ffffffffffffffffffffffffffffffffffffffff16815260200191505060405180910390a1565b60006001809054906101000a900473ffffffffffffffffffffffffffffffffffffffff16905090565b6060600280548060200260200160405190810160405280929190818152602001828054801561079a57602002820191906000526020600020905b8160009054906101000a900473ffffffffffffffffffffffffffffffffffffffff1673ffffffffffffffffffffffffffffffffffffffff1681526020019060010190808311610750575b5050505050905090565b6000600160009054906101000a900460ff1615610829576040517f08c379a00000000000000000000000000000000000000000000000000000000081526004018080602001828103825260108152602001807f5061757361626c653a207061757365640000000000000000000000000000000081525060200191505060405180910390fd5b81803410156108a0576040517f08c379a00000000000000000000000000000000000000000000000000000000081526004018080602001828103825260208152602001807f43616c6c657220646f65736e2774206861766520656e6f7567682066756e647381525060200191505060405180910390fd5b8260008585336040516108b290610ea5565b80806020018481526020018373ffffffffffffffffffffffffffffffffffffffff1673ffffffffffffffffffffffffffffffffffffffff168152602001828103825285818151815260200191508051906020019080838360005b8381101561092757808201518184015260208101905061090c565b50505050905090810190601f1680156109545780820380516001836020036101000a031916815260200191505b50945050505050604051809103906000f080158015610977573d6000803e3d6000fd5b5090508073ffffffffffffffffffffffffffffffffffffffff166108fc869081150290604051600060405180830381858888f193505050501580156109c0573d6000803e3d6000fd5b5060028190806001815401808255809150509060018203906000526020600020016000909192909190916101000a81548173ffffffffffffffffffffffffffffffffffffffff021916908373ffffffffffffffffffffffffffffffffffffffff160217905550507fe99348a8f8c48c4c24e5eacf891114c53fe35af928b79946fd0f587c39f9f149816002805490506002604051808473ffffffffffffffffffffffffffffffffffffffff1673ffffffffffffffffffffffffffffffffffffffff168152602001838152602001806020018281038252838181548152602001915080548015610b0457602002820191906000526020600020905b8160009054906101000a900473ffffffffffffffffffffffffffffffffffffffff1673ffffffffffffffffffffffffffffffffffffffff1681526020019060010190808311610aba575b505094505050505060405180910390a180935050600081340390506000811115610b70573373ffffffffffffffffffffffffffffffffffffffff166108fc829081150290604051600060405180830381858888f19350505050158015610b6e573d6000803e3d6000fd5b505b50505092915050565b60008073ffffffffffffffffffffffffffffffffffffffff168273ffffffffffffffffffffffffffffffffffffffff161415610c01576040517f08c379a000000000000000000000000000000000000000000000000000000000815260040180806020018281038252602281526020018062001cb96022913960400191505060405180910390fd5b8260000160008373ffffffffffffffffffffffffffffffffffffffff1673ffffffffffffffffffffffffffffffffffffffff16815260200190815260200160002060009054906101000a900460ff16905092915050565b610c6c816000610d0c90919063ffffffff16565b8073ffffffffffffffffffffffffffffffffffffffff167fcd265ebaf09df2871cc7bd4133404a235ba12eff2041bb89d9c714a2621c7c7e60405160405180910390a250565b610cc6816000610dca90919063ffffffff16565b8073ffffffffffffffffffffffffffffffffffffffff167f6719d08c1888103bea251a4ed56406bd0c3e69723c8a1686e017e7bbe159b6f860405160405180910390a250565b610d168282610b79565b610d6c576040517f08c379a000000000000000000000000000000000000000000000000000000000815260040180806020018281038252602181526020018062001c986021913960400191505060405180910390fd5b60008260000160008373ffffffffffffffffffffffffffffffffffffffff1673ffffffffffffffffffffffffffffffffffffffff16815260200190815260200160002060006101000a81548160ff0219169083151502179055505050565b610dd48282610b79565b15610e47576040517f08c379a000000000000000000000000000000000000000000000000000000000815260040180806020018281038252601f8152602001807f526f6c65733a206163636f756e7420616c72656164792068617320726f6c650081525060200191505060405180910390fd5b60018260000160008373ffffffffffffffffffffffffffffffffffffffff1673ffffffffffffffffffffffffffffffffffffffff16815260200190815260200160002060006101000a81548160ff0219169083151502179055505050565b610db48062000eb48339019056fe608060405234801561001057600080fd5b5060405162000db438038062000db48339810180604052606081101561003557600080fd5b81019080805164010000000081111561004d57600080fd5b8281019050602081018481111561006357600080fd5b815185600182028301116401000000008211171561008057600080fd5b50509291906020018051906020019092919080519060200190929190505050806000806101000a81548173ffffffffffffffffffffffffffffffffffffffff021916908373ffffffffffffffffffffffffffffffffffffffff16021790555082600190805190602001906100f59291906101e3565b50816002819055506000600460146101000a81548160ff0219169083600281111561011c57fe5b02179055507f2e01f2236e12f88dec9f1ed86d70b02e106bbbdb566a1bf101f117ebb2182796600160405180806020018281038252838181546001816001161561010002031660029004815260200191508054600181600116156101000203166002900480156101cd5780601f106101a2576101008083540402835291602001916101cd565b820191906000526020600020905b8154815290600101906020018083116101b057829003601f168201915b50509250505060405180910390a1505050610288565b828054600181600116156101000203166002900490600052602060002090601f016020900481019282601f1061022457805160ff1916838001178555610252565b82800160010185558215610252579182015b82811115610251578251825591602001919060010190610236565b5b50905061025f9190610263565b5090565b61028591905b80821115610281576000816000905550600101610269565b5090565b90565b610b1c80620002986000396000f3fe6080604052600436106100705760003560e01c806370740ac91161004e57806370740ac9146100cb578063893d20e8146100d55780638b5b9ccc1461012c5780638e7ea5b21461019857610070565b806312065fe01461007257806333a99e041461009d5780635e105118146100b4575b005b34801561007e57600080fd5b506100876101ef565b6040518082815260200191505060405180910390f35b3480156100a957600080fd5b506100b261020e565b005b3480156100c057600080fd5b506100c9610582565b005b6100d361078e565b005b3480156100e157600080fd5b506100ea6109a1565b604051808273ffffffffffffffffffffffffffffffffffffffff1673ffffffffffffffffffffffffffffffffffffffff16815260200191505060405180910390f35b34801561013857600080fd5b506101416109ca565b6040518080602001828103825283818151815260200191508051906020019060200280838360005b83811015610184578082015181840152602081019050610169565b505050509050019250505060405180910390f35b3480156101a457600080fd5b506101ad610a58565b604051808273ffffffffffffffffffffffffffffffffffffffff1673ffffffffffffffffffffffffffffffffffffffff16815260200191505060405180910390f35b60003073ffffffffffffffffffffffffffffffffffffffff1631905090565b6000809054906101000a900473ffffffffffffffffffffffffffffffffffffffff1673ffffffffffffffffffffffffffffffffffffffff163373ffffffffffffffffffffffffffffffffffffffff16146102d0576040517f08c379a00000000000000000000000000000000000000000000000000000000081526004018080602001828103825260138152602001807f43616c6c6572206973206e6f74206f776e65720000000000000000000000000081525060200191505060405180910390fd5b600060028111156102dd57fe5b600460149054906101000a900460ff1660028111156102f857fe5b1461034e576040517f08c379a0000000000000000000000000000000000000000000000000000000008152600401808060200182810382526021815260200180610a836021913960400191505060405180910390fd5b6000600380549050116103ac576040517f08c379a0000000000000000000000000000000000000000000000000000000008152600401808060200182810382526024815260200180610acd6024913960400191505060405180910390fd5b6000600380549050423344604051602001808481526020018373ffffffffffffffffffffffffffffffffffffffff1673ffffffffffffffffffffffffffffffffffffffff1660601b815260140182815260200193505050506040516020818303038152906040528051906020012060001c8161042457fe5b0690506001600460146101000a81548160ff0219169083600281111561044657fe5b02179055506003818154811061045857fe5b9060005260206000200160009054906101000a900473ffffffffffffffffffffffffffffffffffffffff16600460006101000a81548173ffffffffffffffffffffffffffffffffffffffff021916908373ffffffffffffffffffffffffffffffffffffffff1602179055507ff154de07b46369267ad5acd9c4755862e503506514727e21e18319e8f9d83945600460009054906101000a900473ffffffffffffffffffffffffffffffffffffffff16604051808273ffffffffffffffffffffffffffffffffffffffff1673ffffffffffffffffffffffffffffffffffffffff16815260200191505060405180910390a17f4034cea00588331775106b3bb0531716336a0091d3134d70f70abc1208b4070b816040518082815260200191505060405180910390a150565b6000809054906101000a900473ffffffffffffffffffffffffffffffffffffffff1673ffffffffffffffffffffffffffffffffffffffff163373ffffffffffffffffffffffffffffffffffffffff161415610645576040517f08c379a000000000000000000000000000000000000000000000000000000000815260040180806020018281038252600f8152602001807f43616c6c6572206973206f776e6572000000000000000000000000000000000081525060200191505060405180910390fd5b6000600281111561065257fe5b600460149054906101000a900460ff16600281111561066d57fe5b146106c3576040517f08c379a0000000000000000000000000000000000000000000000000000000008152600401808060200182810382526021815260200180610a836021913960400191505060405180910390fd5b60033390806001815401808255809150509060018203906000526020600020016000909192909190916101000a81548173ffffffffffffffffffffffffffffffffffffffff021916908373ffffffffffffffffffffffffffffffffffffffff160217905550507f3ac3d20023090ed6961aaf170d74ceded3a1ce92b23deb8e0df0d4d3440b186c33604051808273ffffffffffffffffffffffffffffffffffffffff1673ffffffffffffffffffffffffffffffffffffffff16815260200191505060405180910390a1565b6001600281111561079b57fe5b600460149054906101000a900460ff1660028111156107b657fe5b1461080c576040517f08c379a0000000000000000000000000000000000000000000000000000000008152600401808060200182810382526029815260200180610aa46029913960400191505060405180910390fd5b600460009054906101000a900473ffffffffffffffffffffffffffffffffffffffff1673ffffffffffffffffffffffffffffffffffffffff163373ffffffffffffffffffffffffffffffffffffffff16146108cf576040517f08c379a00000000000000000000000000000000000000000000000000000000081526004018080602001828103825260188152602001807f43616c6c6572206973206e6f74207468652077696e6e6572000000000000000081525060200191505060405180910390fd5b6002600460146101000a81548160ff021916908360028111156108ee57fe5b02179055503373ffffffffffffffffffffffffffffffffffffffff166108fc6002549081150290604051600060405180830381858888f1935050505015801561093b573d6000803e3d6000fd5b507f28ada6009aa6a16ffab5c7cad39926ce841e25f5b3886d405a11d0e3c1ac204e33604051808273ffffffffffffffffffffffffffffffffffffffff1673ffffffffffffffffffffffffffffffffffffffff16815260200191505060405180910390a1565b60008060009054906101000a900473ffffffffffffffffffffffffffffffffffffffff16905090565b60606003805480602002602001604051908101604052809291908181526020018280548015610a4e57602002820191906000526020600020905b8160009054906101000a900473ffffffffffffffffffffffffffffffffffffffff1673ffffffffffffffffffffffffffffffffffffffff1681526020019060010190808311610a04575b5050505050905090565b6000600460009054906101000a900473ffffffffffffffffffffffffffffffffffffffff1690509056fe53776565707374616b65206973206e6f74206f70656e656420746f20656e74657257696e6e6572206973206e6f742073656c656374656420666f72207468652053776565707374616b6554686572652773206e6f20706c6179657220696e20746869732073776565707374616b65a165627a7a723058206c4acab10374e5b5ff3fe66f432a31c8786babd1536aa727b90ff5b6d8ed93480029506175736572526f6c653a2063616c6c657220646f6573206e6f742068617665207468652050617573657220726f6c65526f6c65733a206163636f756e7420646f6573206e6f74206861766520726f6c65526f6c65733a206163636f756e7420697320746865207a65726f2061646472657373a165627a7a7230582012fe58223f1e0b53b2d6a45646173a03b52f5551a362eb5995cc7ee595b024ae0029526f6c65733a206163636f756e7420697320746865207a65726f2061646472657373",
  "source": "pragma solidity ^0.5.0;\nimport \"./Sweepstake.sol\";\nimport \"openzeppelin-solidity/contracts/lifecycle/Pausable.sol\";\ncontract SweepstakeFactory is Pausable {\n\n    /// owner of contract\n    address owner;\n\n    /// array for all of sweepstakes created\n    address[] sweepstakes;\n\n    /// @notice constructor\n    constructor ()\n        public\n    {\n        owner = msg.sender;\n    }\n\n    /// @dev log when a sweepstake is created\n    /// @param sweepstake of created sweepstake\n    /// @param numSweepstakes The number of sweepstakes\n    /// @param sweepstakes All sweepstakes in the system\n    event LogSweepstakeCreated(address sweepstake, uint numSweepstakes, address[] sweepstakes);\n\n    /// @notice check if caller has enough funds\n    /// @param _prize prize of sweepstake\n    modifier hasEnoughFunds(uint _prize) {\n        require (\n            msg.value >= _prize,\n            \"Caller doesn't have enough funds\"\n        );\n        _;\n    }\n\n    /// @notice refund excess transfer back to caller\n    /// @param _prize prize of sweepstake\n    modifier refundExcessFunds(uint _prize) {\n        _;\n        uint amountToRefund = msg.value - _prize;\n        if (amountToRefund > 0) {\n            msg.sender.transfer(amountToRefund);\n        }\n    }\n    /// @notice factory method to create a new Sweepstake contract\n    /// @param _name name of the sweepstake\n    /// @param _prize price of the sweepstake\n    /// @dev emit LogSweepstakeCreated event\n    function createSweepstake(string memory _name, uint _prize)\n        public\n        payable\n        whenNotPaused\n        hasEnoughFunds(_prize)\n        refundExcessFunds(_prize)\n        returns (Sweepstake)\n    {\n        Sweepstake theSweepstake = new Sweepstake(_name, _prize, msg.sender);\n        address(theSweepstake).transfer(_prize);\n        sweepstakes.push(address(theSweepstake));\n        emit LogSweepstakeCreated(address(theSweepstake), sweepstakes.length, sweepstakes);\n        return theSweepstake;\n    }\n\n    /// @notice get owner\n    /// @return return owner address\n    function getOwner()\n        public\n        view\n        returns (address)\n    {\n        return owner;\n    }\n\n    /// @notice get all sweepstakes\n    /// @return array of sweepstakes\n    function getSweepstakes()\n        public\n        view\n        returns (address[] memory)\n    {\n        return sweepstakes;\n    }\n}",
  "sourcePath": "/Users/csu/dev/sweepstake/contracts/SweepstakeFactory.sol",
  "compiler": {
    "name": "solc",
    "version": "0.5.8+commit.23d335f2.Emscripten.clang"
  },
  "schemaVersion": "3.0.11",
  "updatedAt": "2019-08-01T00:17:31.820Z",
  "devdoc": {
    "methods": {
      "createSweepstake(string,uint256)": {
        "details": "emit LogSweepstakeCreated event",
        "params": {
          "_name": "name of the sweepstake",
          "_prize": "price of the sweepstake"
        }
      },
      "getOwner()": {
        "return": "return owner address"
      },
      "getSweepstakes()": {
        "return": "array of sweepstakes"
      },
      "pause()": {
        "details": "Called by a pauser to pause, triggers stopped state."
      },
      "paused()": {
        "details": "Returns true if the contract is paused, and false otherwise."
      },
      "unpause()": {
        "details": "Called by a pauser to unpause, returns to normal state."
      }
    }
  },
  "userdoc": {
    "methods": {
      "constructor": "constructor",
      "createSweepstake(string,uint256)": {
        "notice": "factory method to create a new Sweepstake contract"
      },
      "getOwner()": {
        "notice": "get owner"
      },
      "getSweepstakes()": {
        "notice": "get all sweepstakes"
      }
    }
  }
}