{
  "contractName": "SweepstakeFactory",
  "abi": [
    {
      "constant": false,
      "inputs": [],
      "name": "unpause",
      "outputs": [],
      "payable": false,
      "stateMutability": "nonpayable",
      "type": "function"
    },
    {
      "constant": true,
      "inputs": [
        {
          "name": "account",
          "type": "address"
        }
      ],
      "name": "isPauser",
      "outputs": [
        {
          "name": "",
          "type": "bool"
        }
      ],
      "payable": false,
      "stateMutability": "view",
      "type": "function"
    },
    {
      "constant": true,
      "inputs": [],
      "name": "paused",
      "outputs": [
        {
          "name": "",
          "type": "bool"
        }
      ],
      "payable": false,
      "stateMutability": "view",
      "type": "function"
    },
    {
      "constant": false,
      "inputs": [],
      "name": "renouncePauser",
      "outputs": [],
      "payable": false,
      "stateMutability": "nonpayable",
      "type": "function"
    },
    {
      "constant": false,
      "inputs": [
        {
          "name": "account",
          "type": "address"
        }
      ],
      "name": "addPauser",
      "outputs": [],
      "payable": false,
      "stateMutability": "nonpayable",
      "type": "function"
    },
    {
      "constant": false,
      "inputs": [],
      "name": "pause",
      "outputs": [],
      "payable": false,
      "stateMutability": "nonpayable",
      "type": "function"
    },
    {
      "inputs": [],
      "payable": false,
      "stateMutability": "nonpayable",
      "type": "constructor"
    },
    {
      "anonymous": false,
      "inputs": [
        {
          "indexed": false,
          "name": "sweepstake",
          "type": "address"
        },
        {
          "indexed": false,
          "name": "numSweepstakes",
          "type": "uint256"
        },
        {
          "indexed": false,
          "name": "sweepstakes",
          "type": "address[]"
        }
      ],
      "name": "LogSweepstakeCreated",
      "type": "event"
    },
    {
      "anonymous": false,
      "inputs": [
        {
          "indexed": false,
          "name": "account",
          "type": "address"
        }
      ],
      "name": "Paused",
      "type": "event"
    },
    {
      "anonymous": false,
      "inputs": [
        {
          "indexed": false,
          "name": "account",
          "type": "address"
        }
      ],
      "name": "Unpaused",
      "type": "event"
    },
    {
      "anonymous": false,
      "inputs": [
        {
          "indexed": true,
          "name": "account",
          "type": "address"
        }
      ],
      "name": "PauserAdded",
      "type": "event"
    },
    {
      "anonymous": false,
      "inputs": [
        {
          "indexed": true,
          "name": "account",
          "type": "address"
        }
      ],
      "name": "PauserRemoved",
      "type": "event"
    },
    {
      "constant": false,
      "inputs": [
        {
          "name": "_name",
          "type": "string"
        },
        {
          "name": "_prize",
          "type": "uint256"
        }
      ],
      "name": "createSweepstake",
      "outputs": [
        {
          "name": "",
          "type": "address"
        }
      ],
      "payable": true,
      "stateMutability": "payable",
      "type": "function"
    },
    {
      "constant": true,
      "inputs": [],
      "name": "getOwner",
      "outputs": [
        {
          "name": "",
          "type": "address"
        }
      ],
      "payable": false,
      "stateMutability": "view",
      "type": "function"
    },
    {
      "constant": true,
      "inputs": [],
      "name": "getSweepstakes",
      "outputs": [
        {
          "name": "",
          "type": "address[]"
        }
      ],
      "payable": false,
      "stateMutability": "view",
      "type": "function"
    }
  ],
  "bytecode": "0x608060405234801561001057600080fd5b506100203361008060201b60201c565b6000600160006101000a81548160ff021916908315150217905550336001806101000a81548173ffffffffffffffffffffffffffffffffffffffff021916908373ffffffffffffffffffffffffffffffffffffffff16021790555061029d565b6100988160006100de60201b610dec1790919060201c565b8073ffffffffffffffffffffffffffffffffffffffff167f6719d08c1888103bea251a4ed56406bd0c3e69723c8a1686e017e7bbe159b6f860405160405180910390a250565b6100ee82826101bf60201b60201c565b15610161576040517f08c379a000000000000000000000000000000000000000000000000000000000815260040180806020018281038252601f8152602001807f526f6c65733a206163636f756e7420616c72656164792068617320726f6c650081525060200191505060405180910390fd5b60018260000160008373ffffffffffffffffffffffffffffffffffffffff1673ffffffffffffffffffffffffffffffffffffffff16815260200190815260200160002060006101000a81548160ff0219169083151502179055505050565b60008073ffffffffffffffffffffffffffffffffffffffff168273ffffffffffffffffffffffffffffffffffffffff161415610246576040517f08c379a000000000000000000000000000000000000000000000000000000000815260040180806020018281038252602281526020018061229e6022913960400191505060405180910390fd5b8260000160008373ffffffffffffffffffffffffffffffffffffffff1673ffffffffffffffffffffffffffffffffffffffff16815260200190815260200160002060009054906101000a900460ff16905092915050565b611ff2806102ac6000396000f3fe608060405260043610620000925760003560e01c806382dc1ec4116200006157806382dc1ec4146200016a5780638456cb5914620001bf578063893d20e814620001d9578063b83e863d1462000233578063c154c5b914620002a45762000092565b80633f4ba83a146200009757806346fbf68e14620000b15780635c975abb146200011e5780636ef8d66d1462000150575b600080fd5b348015620000a457600080fd5b50620000af620003af565b005b348015620000be57600080fd5b506200010460048036036020811015620000d757600080fd5b81019080803573ffffffffffffffffffffffffffffffffffffffff16906020019092919050505062000514565b604051808215151515815260200191505060405180910390f35b3480156200012b57600080fd5b506200013662000533565b604051808215151515815260200191505060405180910390f35b3480156200015d57600080fd5b50620001686200054a565b005b3480156200017757600080fd5b50620001bd600480360360208110156200019057600080fd5b81019080803573ffffffffffffffffffffffffffffffffffffffff16906020019092919050505062000557565b005b348015620001cc57600080fd5b50620001d7620005c7565b005b348015620001e657600080fd5b50620001f16200072c565b604051808273ffffffffffffffffffffffffffffffffffffffff1673ffffffffffffffffffffffffffffffffffffffff16815260200191505060405180910390f35b3480156200024057600080fd5b506200024b62000755565b6040518080602001828103825283818151815260200191508051906020019060200280838360005b838110156200029057808201518184015260208101905062000273565b505050509050019250505060405180910390f35b6200036d60048036036040811015620002bc57600080fd5b8101908080359060200190640100000000811115620002da57600080fd5b820183602082011115620002ed57600080fd5b803590602001918460018302840111640100000000831117156200031057600080fd5b91908080601f016020809104026020016040519081016040528093929190818152602001838380828437600081840152601f19601f82011690508083019250505050505050919291929080359060200190929190505050620007e5565b604051808273ffffffffffffffffffffffffffffffffffffffff1673ffffffffffffffffffffffffffffffffffffffff16815260200191505060405180910390f35b620003ba3362000514565b62000411576040517f08c379a000000000000000000000000000000000000000000000000000000000815260040180806020018281038252603081526020018062001f546030913960400191505060405180910390fd5b600160009054906101000a900460ff1662000494576040517f08c379a00000000000000000000000000000000000000000000000000000000081526004018080602001828103825260148152602001807f5061757361626c653a206e6f742070617573656400000000000000000000000081525060200191505060405180910390fd5b6000600160006101000a81548160ff0219169083151502179055507f5db9ee0a495bf2e6ff9c91a7834c1ba4fdd244a5e8aa4e537bd38aeae4b073aa33604051808273ffffffffffffffffffffffffffffffffffffffff1673ffffffffffffffffffffffffffffffffffffffff16815260200191505060405180910390a1565b60006200052c82600062000b9390919063ffffffff16565b9050919050565b6000600160009054906101000a900460ff16905090565b620005553362000c73565b565b620005623362000514565b620005b9576040517f08c379a000000000000000000000000000000000000000000000000000000000815260040180806020018281038252603081526020018062001f546030913960400191505060405180910390fd5b620005c48162000ccf565b50565b620005d23362000514565b62000629576040517f08c379a000000000000000000000000000000000000000000000000000000000815260040180806020018281038252603081526020018062001f546030913960400191505060405180910390fd5b600160009054906101000a900460ff1615620006ad576040517f08c379a00000000000000000000000000000000000000000000000000000000081526004018080602001828103825260108152602001807f5061757361626c653a207061757365640000000000000000000000000000000081525060200191505060405180910390fd5b60018060006101000a81548160ff0219169083151502179055507f62e78cea01bee320cd4e420270b5ea74000d11b0c9f74754ebdbfc544b05a25833604051808273ffffffffffffffffffffffffffffffffffffffff1673ffffffffffffffffffffffffffffffffffffffff16815260200191505060405180910390a1565b60006001809054906101000a900473ffffffffffffffffffffffffffffffffffffffff16905090565b60606002805480602002602001604051908101604052809291908181526020018280548015620007db57602002820191906000526020600020905b8160009054906101000a900473ffffffffffffffffffffffffffffffffffffffff1673ffffffffffffffffffffffffffffffffffffffff168152602001906001019080831162000790575b5050505050905090565b6000600160009054906101000a900460ff16156200086b576040517f08c379a00000000000000000000000000000000000000000000000000000000081526004018080602001828103825260108152602001807f5061757361626c653a207061757365640000000000000000000000000000000081525060200191505060405180910390fd5b8180341015620008e3576040517f08c379a00000000000000000000000000000000000000000000000000000000081526004018080602001828103825260208152602001807f43616c6c657220646f65736e2774206861766520656e6f7567682066756e647381525060200191505060405180910390fd5b8260008585604051620008f69062000eca565b8080602001838152602001828103825284818151815260200191508051906020019080838360005b838110156200093b5780820151818401526020810190506200091e565b50505050905090810190601f168015620009695780820380516001836020036101000a031916815260200191505b509350505050604051809103906000f0801580156200098c573d6000803e3d6000fd5b5090508073ffffffffffffffffffffffffffffffffffffffff166108fc869081150290604051600060405180830381858888f19350505050158015620009d6573d6000803e3d6000fd5b5060028190806001815401808255809150509060018203906000526020600020016000909192909190916101000a81548173ffffffffffffffffffffffffffffffffffffffff021916908373ffffffffffffffffffffffffffffffffffffffff160217905550507fe99348a8f8c48c4c24e5eacf891114c53fe35af928b79946fd0f587c39f9f149816002805490506002604051808473ffffffffffffffffffffffffffffffffffffffff1673ffffffffffffffffffffffffffffffffffffffff16815260200183815260200180602001828103825283818154815260200191508054801562000b1c57602002820191906000526020600020905b8160009054906101000a900473ffffffffffffffffffffffffffffffffffffffff1673ffffffffffffffffffffffffffffffffffffffff168152602001906001019080831162000ad1575b505094505050505060405180910390a18093505060008134039050600081111562000b8a573373ffffffffffffffffffffffffffffffffffffffff166108fc829081150290604051600060405180830381858888f1935050505015801562000b88573d6000803e3d6000fd5b505b50505092915050565b60008073ffffffffffffffffffffffffffffffffffffffff168273ffffffffffffffffffffffffffffffffffffffff16141562000c1c576040517f08c379a000000000000000000000000000000000000000000000000000000000815260040180806020018281038252602281526020018062001fa56022913960400191505060405180910390fd5b8260000160008373ffffffffffffffffffffffffffffffffffffffff1673ffffffffffffffffffffffffffffffffffffffff16815260200190815260200160002060009054906101000a900460ff16905092915050565b62000c8981600062000d2b90919063ffffffff16565b8073ffffffffffffffffffffffffffffffffffffffff167fcd265ebaf09df2871cc7bd4133404a235ba12eff2041bb89d9c714a2621c7c7e60405160405180910390a250565b62000ce581600062000dec90919063ffffffff16565b8073ffffffffffffffffffffffffffffffffffffffff167f6719d08c1888103bea251a4ed56406bd0c3e69723c8a1686e017e7bbe159b6f860405160405180910390a250565b62000d37828262000b93565b62000d8e576040517f08c379a000000000000000000000000000000000000000000000000000000000815260040180806020018281038252602181526020018062001f846021913960400191505060405180910390fd5b60008260000160008373ffffffffffffffffffffffffffffffffffffffff1673ffffffffffffffffffffffffffffffffffffffff16815260200190815260200160002060006101000a81548160ff0219169083151502179055505050565b62000df8828262000b93565b1562000e6c576040517f08c379a000000000000000000000000000000000000000000000000000000000815260040180806020018281038252601f8152602001807f526f6c65733a206163636f756e7420616c72656164792068617320726f6c650081525060200191505060405180910390fd5b60018260000160008373ffffffffffffffffffffffffffffffffffffffff1673ffffffffffffffffffffffffffffffffffffffff16815260200190815260200160002060006101000a81548160ff0219169083151502179055505050565b61107b8062000ed98339019056fe60806040523480156200001157600080fd5b506040516200107b3803806200107b833981018060405260408110156200003757600080fd5b8101908080516401000000008111156200005057600080fd5b828101905060208101848111156200006757600080fd5b81518560018202830111640100000000821117156200008557600080fd5b50509291906020018051906020019092919050505033600560006101000a81548173ffffffffffffffffffffffffffffffffffffffff021916908373ffffffffffffffffffffffffffffffffffffffff1602179055508160069080519060200190620000f3929190620001e6565b50806007819055506000600960146101000a81548160ff021916908360028111156200011b57fe5b02179055507f2e01f2236e12f88dec9f1ed86d70b02e106bbbdb566a1bf101f117ebb218279660066040518080602001828103825283818154600181600116156101000203166002900481526020019150805460018160011615610100020316600290048015620001d05780601f10620001a457610100808354040283529160200191620001d0565b820191906000526020600020905b815481529060010190602001808311620001b257829003601f168201915b50509250505060405180910390a1505062000295565b828054600181600116156101000203166002900490600052602060002090601f016020900481019282601f106200022957805160ff19168380011785556200025a565b828001600101855582156200025a579182015b82811115620002595782518255916020019190600101906200023c565b5b5090506200026991906200026d565b5090565b6200029291905b808211156200028e57600081600090555060010162000274565b5090565b90565b610dd680620002a56000396000f3fe6080604052600436106100865760003560e01c80635e105118116100595780635e1051181461030557806370740ac91461031c578063893d20e8146103265780638b5b9ccc1461037d5780638e7ea5b2146103e957610086565b806312065fe01461008857806327dc297e146100b357806333a99e041461018557806338bbfa501461019c575b005b34801561009457600080fd5b5061009d610440565b6040518082815260200191505060405180910390f35b3480156100bf57600080fd5b50610183600480360360408110156100d657600080fd5b8101908080359060200190929190803590602001906401000000008111156100fd57600080fd5b82018360208201111561010f57600080fd5b8035906020019184600183028401116401000000008311171561013157600080fd5b91908080601f016020809104026020016040519081016040528093929190818152602001838380828437600081840152601f19601f82011690508083019250505050505050919291929050505061045f565b005b34801561019157600080fd5b5061019a6104a2565b005b3480156101a857600080fd5b50610303600480360360608110156101bf57600080fd5b8101908080359060200190929190803590602001906401000000008111156101e657600080fd5b8201836020820111156101f857600080fd5b8035906020019184600183028401116401000000008311171561021a57600080fd5b91908080601f016020809104026020016040519081016040528093929190818152602001838380828437600081840152601f19601f8201169050808301925050505050505091929192908035906020019064010000000081111561027d57600080fd5b82018360208201111561028f57600080fd5b803590602001918460018302840111640100000000831117156102b157600080fd5b91908080601f016020809104026020016040519081016040528093929190818152602001838380828437600081840152601f19601f820116905080830192505050505050509192919290505050610817565b005b34801561031157600080fd5b5061031a61083a565b005b610324610a47565b005b34801561033257600080fd5b5061033b610c5a565b604051808273ffffffffffffffffffffffffffffffffffffffff1673ffffffffffffffffffffffffffffffffffffffff16815260200191505060405180910390f35b34801561038957600080fd5b50610392610c84565b6040518080602001828103825283818151815260200191508051906020019060200280838360005b838110156103d55780820151818401526020810190506103ba565b505050509050019250505060405180910390f35b3480156103f557600080fd5b506103fe610d12565b604051808273ffffffffffffffffffffffffffffffffffffffff1673ffffffffffffffffffffffffffffffffffffffff16815260200191505060405180910390f35b60003073ffffffffffffffffffffffffffffffffffffffff1631905090565b61049e828260006040519080825280601f01601f1916602001820160405280156104985781602001600182028038833980820191505090505b50610817565b5050565b600560009054906101000a900473ffffffffffffffffffffffffffffffffffffffff1673ffffffffffffffffffffffffffffffffffffffff163373ffffffffffffffffffffffffffffffffffffffff1614610565576040517f08c379a00000000000000000000000000000000000000000000000000000000081526004018080602001828103825260138152602001807f43616c6c6572206973206e6f74206f776e65720000000000000000000000000081525060200191505060405180910390fd5b6000600281111561057257fe5b600960149054906101000a900460ff16600281111561058d57fe5b146105e3576040517f08c379a0000000000000000000000000000000000000000000000000000000008152600401808060200182810382526021815260200180610d3d6021913960400191505060405180910390fd5b600060088054905011610641576040517f08c379a0000000000000000000000000000000000000000000000000000000008152600401808060200182810382526024815260200180610d876024913960400191505060405180910390fd5b6000600880549050423344604051602001808481526020018373ffffffffffffffffffffffffffffffffffffffff1673ffffffffffffffffffffffffffffffffffffffff1660601b815260140182815260200193505050506040516020818303038152906040528051906020012060001c816106b957fe5b069050600881815481106106c957fe5b9060005260206000200160009054906101000a900473ffffffffffffffffffffffffffffffffffffffff16600960006101000a81548173ffffffffffffffffffffffffffffffffffffffff021916908373ffffffffffffffffffffffffffffffffffffffff1602179055506001600960146101000a81548160ff0219169083600281111561075357fe5b02179055507ff154de07b46369267ad5acd9c4755862e503506514727e21e18319e8f9d83945600960009054906101000a900473ffffffffffffffffffffffffffffffffffffffff16604051808273ffffffffffffffffffffffffffffffffffffffff1673ffffffffffffffffffffffffffffffffffffffff16815260200191505060405180910390a17f4034cea00588331775106b3bb0531716336a0091d3134d70f70abc1208b4070b816040518082815260200191505060405180910390a150565b6000801b600360008060001b815260200190815260200160002081905550505050565b600560009054906101000a900473ffffffffffffffffffffffffffffffffffffffff1673ffffffffffffffffffffffffffffffffffffffff163373ffffffffffffffffffffffffffffffffffffffff1614156108fe576040517f08c379a000000000000000000000000000000000000000000000000000000000815260040180806020018281038252600f8152602001807f43616c6c6572206973206f776e6572000000000000000000000000000000000081525060200191505060405180910390fd5b6000600281111561090b57fe5b600960149054906101000a900460ff16600281111561092657fe5b1461097c576040517f08c379a0000000000000000000000000000000000000000000000000000000008152600401808060200182810382526021815260200180610d3d6021913960400191505060405180910390fd5b60083390806001815401808255809150509060018203906000526020600020016000909192909190916101000a81548173ffffffffffffffffffffffffffffffffffffffff021916908373ffffffffffffffffffffffffffffffffffffffff160217905550507f3ac3d20023090ed6961aaf170d74ceded3a1ce92b23deb8e0df0d4d3440b186c33604051808273ffffffffffffffffffffffffffffffffffffffff1673ffffffffffffffffffffffffffffffffffffffff16815260200191505060405180910390a1565b60016002811115610a5457fe5b600960149054906101000a900460ff166002811115610a6f57fe5b14610ac5576040517f08c379a0000000000000000000000000000000000000000000000000000000008152600401808060200182810382526029815260200180610d5e6029913960400191505060405180910390fd5b600960009054906101000a900473ffffffffffffffffffffffffffffffffffffffff1673ffffffffffffffffffffffffffffffffffffffff163373ffffffffffffffffffffffffffffffffffffffff1614610b88576040517f08c379a00000000000000000000000000000000000000000000000000000000081526004018080602001828103825260188152602001807f43616c6c6572206973206e6f74207468652077696e6e6572000000000000000081525060200191505060405180910390fd5b6002600960146101000a81548160ff02191690836002811115610ba757fe5b02179055503373ffffffffffffffffffffffffffffffffffffffff166108fc6007549081150290604051600060405180830381858888f19350505050158015610bf4573d6000803e3d6000fd5b507f28ada6009aa6a16ffab5c7cad39926ce841e25f5b3886d405a11d0e3c1ac204e33604051808273ffffffffffffffffffffffffffffffffffffffff1673ffffffffffffffffffffffffffffffffffffffff16815260200191505060405180910390a1565b6000600560009054906101000a900473ffffffffffffffffffffffffffffffffffffffff16905090565b60606008805480602002602001604051908101604052809291908181526020018280548015610d0857602002820191906000526020600020905b8160009054906101000a900473ffffffffffffffffffffffffffffffffffffffff1673ffffffffffffffffffffffffffffffffffffffff1681526020019060010190808311610cbe575b5050505050905090565b6000600960009054906101000a900473ffffffffffffffffffffffffffffffffffffffff1690509056fe53776565707374616b65206973206e6f74206f70656e656420746f20656e74657257696e6e6572206973206e6f742073656c656374656420666f72207468652053776565707374616b6554686572652773206e6f20706c6179657220696e20746869732073776565707374616b65a165627a7a72305820c5cfb881710f83afa67abd14651e43e9e809f2b714a39548b1f74ffbb8c3272c0029506175736572526f6c653a2063616c6c657220646f6573206e6f742068617665207468652050617573657220726f6c65526f6c65733a206163636f756e7420646f6573206e6f74206861766520726f6c65526f6c65733a206163636f756e7420697320746865207a65726f2061646472657373a165627a7a72305820f3e697e917c5097bf862b278daff9e47b8668c30632014d467cb0448a03f475d0029526f6c65733a206163636f756e7420697320746865207a65726f2061646472657373",
  "source": "pragma solidity ^0.5.0;\nimport \"./Sweepstake.sol\";\nimport \"openzeppelin-solidity/contracts/lifecycle/Pausable.sol\";\ncontract SweepstakeFactory is Pausable {\n\n    address owner;\n    /// array for all of the sweepstakes created\n    address[] sweepstakes;\n\n    constructor ()\n        public\n    {\n        owner = msg.sender;\n    }\n\n    /// @dev log when a sweepstake is created\n    /// @param sweepstake of created sweepstake\n    /// @param numSweepstakes The number of sweepstakes\n    /// @param sweepstakes All sweepstakes in the system\n    event LogSweepstakeCreated(address sweepstake, uint numSweepstakes, address[] sweepstakes);\n\n    /// @notice factory method to create a new Sweepstake contract\n    /// @param _name The sweepstake's name\n    /// @dev emit LogSweepstakeCreated event\n    function createSweepstake(string memory _name, uint _prize)\n        public\n        payable\n        whenNotPaused\n        hasEnoughFunds(_prize)\n        refundExcessFunds(_prize)\n        returns (Sweepstake)\n    {\n        Sweepstake theSweepstake = new Sweepstake(_name, _prize);\n        address(theSweepstake).transfer(_prize);\n        sweepstakes.push(address(theSweepstake));\n        emit LogSweepstakeCreated(address(theSweepstake), sweepstakes.length, sweepstakes);\n        return theSweepstake;\n    }\n\n    /// @notice check if caller has enough funds\n    modifier hasEnoughFunds(uint _prize) {\n        require (\n            msg.value >= _prize,\n            \"Caller doesn't have enough funds\"\n        );\n        _;\n    }\n\n    /// @notice refund excess transfer back to caller\n    modifier refundExcessFunds(uint _prize) {\n        _;\n        uint amountToRefund = msg.value - _prize;\n        if (amountToRefund > 0) {\n            msg.sender.transfer(amountToRefund);\n        }\n    }\n\n    /// @notice get owner\n    /// @return return owner address\n    function getOwner()\n        public\n        view\n        returns (address)\n    {\n        return owner;\n    }\n\n    /// @notice get all sweepstakes\n    /// @return array of sweepstakes\n    function getSweepstakes()\n        public\n        view\n        returns (address[] memory)\n    {\n        return sweepstakes;\n    }\n}",
  "sourcePath": "/Users/csu/dev/sweepstakes_bak/contracts/SweepstakeFactory.sol",
  "compiler": {
    "name": "solc",
    "version": "0.5.8+commit.23d335f2.Emscripten.clang"
  },
  "schemaVersion": "3.0.11",
  "updatedAt": "2019-07-29T03:04:26.031Z",
  "devdoc": {
    "methods": {
      "createSweepstake(string,uint256)": {
        "details": "emit LogSweepstakeCreated event",
        "params": {
          "_name": "The sweepstake's name"
        }
      },
      "getOwner()": {
        "return": "return owner address"
      },
      "getSweepstakes()": {
        "return": "array of sweepstakes"
      },
      "pause()": {
        "details": "Called by a pauser to pause, triggers stopped state."
      },
      "paused()": {
        "details": "Returns true if the contract is paused, and false otherwise."
      },
      "unpause()": {
        "details": "Called by a pauser to unpause, returns to normal state."
      }
    }
  },
  "userdoc": {
    "methods": {
      "createSweepstake(string,uint256)": {
        "notice": "factory method to create a new Sweepstake contract"
      },
      "getOwner()": {
        "notice": "get owner"
      },
      "getSweepstakes()": {
        "notice": "get all sweepstakes"
      }
    }
  }
}