{
  "contractName": "Sweepstake",
  "abi": [
    {
      "constant": false,
      "inputs": [
        {
          "name": "_myid",
          "type": "bytes32"
        },
        {
          "name": "_result",
          "type": "string"
        }
      ],
      "name": "__callback",
      "outputs": [],
      "payable": false,
      "stateMutability": "nonpayable",
      "type": "function"
    },
    {
      "constant": false,
      "inputs": [
        {
          "name": "_myid",
          "type": "bytes32"
        },
        {
          "name": "_result",
          "type": "string"
        },
        {
          "name": "_proof",
          "type": "bytes"
        }
      ],
      "name": "__callback",
      "outputs": [],
      "payable": false,
      "stateMutability": "nonpayable",
      "type": "function"
    },
    {
      "inputs": [
        {
          "name": "_name",
          "type": "string"
        },
        {
          "name": "_prize",
          "type": "uint256"
        }
      ],
      "payable": false,
      "stateMutability": "nonpayable",
      "type": "constructor"
    },
    {
      "payable": true,
      "stateMutability": "payable",
      "type": "fallback"
    },
    {
      "anonymous": false,
      "inputs": [
        {
          "indexed": false,
          "name": "_name",
          "type": "string"
        }
      ],
      "name": "LogOpened",
      "type": "event"
    },
    {
      "anonymous": false,
      "inputs": [
        {
          "indexed": false,
          "name": "_player",
          "type": "address"
        }
      ],
      "name": "LogSelected",
      "type": "event"
    },
    {
      "anonymous": false,
      "inputs": [
        {
          "indexed": false,
          "name": "_player",
          "type": "address"
        }
      ],
      "name": "LogClaimed",
      "type": "event"
    },
    {
      "anonymous": false,
      "inputs": [
        {
          "indexed": false,
          "name": "_player",
          "type": "address"
        }
      ],
      "name": "LogEntered",
      "type": "event"
    },
    {
      "anonymous": false,
      "inputs": [
        {
          "indexed": false,
          "name": "_number",
          "type": "uint256"
        }
      ],
      "name": "LogRandomNumber",
      "type": "event"
    },
    {
      "constant": false,
      "inputs": [],
      "name": "enterSweepstake",
      "outputs": [],
      "payable": false,
      "stateMutability": "nonpayable",
      "type": "function"
    },
    {
      "constant": false,
      "inputs": [],
      "name": "selectWinner",
      "outputs": [],
      "payable": false,
      "stateMutability": "nonpayable",
      "type": "function"
    },
    {
      "constant": true,
      "inputs": [],
      "name": "getOwner",
      "outputs": [
        {
          "name": "",
          "type": "address"
        }
      ],
      "payable": false,
      "stateMutability": "view",
      "type": "function"
    },
    {
      "constant": true,
      "inputs": [],
      "name": "getWinner",
      "outputs": [
        {
          "name": "",
          "type": "address"
        }
      ],
      "payable": false,
      "stateMutability": "view",
      "type": "function"
    },
    {
      "constant": true,
      "inputs": [],
      "name": "getPlayers",
      "outputs": [
        {
          "name": "",
          "type": "address[]"
        }
      ],
      "payable": false,
      "stateMutability": "view",
      "type": "function"
    },
    {
      "constant": false,
      "inputs": [],
      "name": "claimPrize",
      "outputs": [],
      "payable": true,
      "stateMutability": "payable",
      "type": "function"
    },
    {
      "constant": true,
      "inputs": [],
      "name": "getBalance",
      "outputs": [
        {
          "name": "",
          "type": "uint256"
        }
      ],
      "payable": false,
      "stateMutability": "view",
      "type": "function"
    }
  ],
  "bytecode": "0x60806040523480156200001157600080fd5b506040516200107b3803806200107b833981018060405260408110156200003757600080fd5b8101908080516401000000008111156200005057600080fd5b828101905060208101848111156200006757600080fd5b81518560018202830111640100000000821117156200008557600080fd5b50509291906020018051906020019092919050505033600560006101000a81548173ffffffffffffffffffffffffffffffffffffffff021916908373ffffffffffffffffffffffffffffffffffffffff1602179055508160069080519060200190620000f3929190620001e6565b50806007819055506000600960146101000a81548160ff021916908360028111156200011b57fe5b02179055507f2e01f2236e12f88dec9f1ed86d70b02e106bbbdb566a1bf101f117ebb218279660066040518080602001828103825283818154600181600116156101000203166002900481526020019150805460018160011615610100020316600290048015620001d05780601f10620001a457610100808354040283529160200191620001d0565b820191906000526020600020905b815481529060010190602001808311620001b257829003601f168201915b50509250505060405180910390a1505062000295565b828054600181600116156101000203166002900490600052602060002090601f016020900481019282601f106200022957805160ff19168380011785556200025a565b828001600101855582156200025a579182015b82811115620002595782518255916020019190600101906200023c565b5b5090506200026991906200026d565b5090565b6200029291905b808211156200028e57600081600090555060010162000274565b5090565b90565b610dd680620002a56000396000f3fe6080604052600436106100865760003560e01c80635e105118116100595780635e1051181461030557806370740ac91461031c578063893d20e8146103265780638b5b9ccc1461037d5780638e7ea5b2146103e957610086565b806312065fe01461008857806327dc297e146100b357806333a99e041461018557806338bbfa501461019c575b005b34801561009457600080fd5b5061009d610440565b6040518082815260200191505060405180910390f35b3480156100bf57600080fd5b50610183600480360360408110156100d657600080fd5b8101908080359060200190929190803590602001906401000000008111156100fd57600080fd5b82018360208201111561010f57600080fd5b8035906020019184600183028401116401000000008311171561013157600080fd5b91908080601f016020809104026020016040519081016040528093929190818152602001838380828437600081840152601f19601f82011690508083019250505050505050919291929050505061045f565b005b34801561019157600080fd5b5061019a6104a2565b005b3480156101a857600080fd5b50610303600480360360608110156101bf57600080fd5b8101908080359060200190929190803590602001906401000000008111156101e657600080fd5b8201836020820111156101f857600080fd5b8035906020019184600183028401116401000000008311171561021a57600080fd5b91908080601f016020809104026020016040519081016040528093929190818152602001838380828437600081840152601f19601f8201169050808301925050505050505091929192908035906020019064010000000081111561027d57600080fd5b82018360208201111561028f57600080fd5b803590602001918460018302840111640100000000831117156102b157600080fd5b91908080601f016020809104026020016040519081016040528093929190818152602001838380828437600081840152601f19601f820116905080830192505050505050509192919290505050610817565b005b34801561031157600080fd5b5061031a61083a565b005b610324610a47565b005b34801561033257600080fd5b5061033b610c5a565b604051808273ffffffffffffffffffffffffffffffffffffffff1673ffffffffffffffffffffffffffffffffffffffff16815260200191505060405180910390f35b34801561038957600080fd5b50610392610c84565b6040518080602001828103825283818151815260200191508051906020019060200280838360005b838110156103d55780820151818401526020810190506103ba565b505050509050019250505060405180910390f35b3480156103f557600080fd5b506103fe610d12565b604051808273ffffffffffffffffffffffffffffffffffffffff1673ffffffffffffffffffffffffffffffffffffffff16815260200191505060405180910390f35b60003073ffffffffffffffffffffffffffffffffffffffff1631905090565b61049e828260006040519080825280601f01601f1916602001820160405280156104985781602001600182028038833980820191505090505b50610817565b5050565b600560009054906101000a900473ffffffffffffffffffffffffffffffffffffffff1673ffffffffffffffffffffffffffffffffffffffff163373ffffffffffffffffffffffffffffffffffffffff1614610565576040517f08c379a00000000000000000000000000000000000000000000000000000000081526004018080602001828103825260138152602001807f43616c6c6572206973206e6f74206f776e65720000000000000000000000000081525060200191505060405180910390fd5b6000600281111561057257fe5b600960149054906101000a900460ff16600281111561058d57fe5b146105e3576040517f08c379a0000000000000000000000000000000000000000000000000000000008152600401808060200182810382526021815260200180610d3d6021913960400191505060405180910390fd5b600060088054905011610641576040517f08c379a0000000000000000000000000000000000000000000000000000000008152600401808060200182810382526024815260200180610d876024913960400191505060405180910390fd5b6000600880549050423344604051602001808481526020018373ffffffffffffffffffffffffffffffffffffffff1673ffffffffffffffffffffffffffffffffffffffff1660601b815260140182815260200193505050506040516020818303038152906040528051906020012060001c816106b957fe5b069050600881815481106106c957fe5b9060005260206000200160009054906101000a900473ffffffffffffffffffffffffffffffffffffffff16600960006101000a81548173ffffffffffffffffffffffffffffffffffffffff021916908373ffffffffffffffffffffffffffffffffffffffff1602179055506001600960146101000a81548160ff0219169083600281111561075357fe5b02179055507ff154de07b46369267ad5acd9c4755862e503506514727e21e18319e8f9d83945600960009054906101000a900473ffffffffffffffffffffffffffffffffffffffff16604051808273ffffffffffffffffffffffffffffffffffffffff1673ffffffffffffffffffffffffffffffffffffffff16815260200191505060405180910390a17f4034cea00588331775106b3bb0531716336a0091d3134d70f70abc1208b4070b816040518082815260200191505060405180910390a150565b6000801b600360008060001b815260200190815260200160002081905550505050565b600560009054906101000a900473ffffffffffffffffffffffffffffffffffffffff1673ffffffffffffffffffffffffffffffffffffffff163373ffffffffffffffffffffffffffffffffffffffff1614156108fe576040517f08c379a000000000000000000000000000000000000000000000000000000000815260040180806020018281038252600f8152602001807f43616c6c6572206973206f776e6572000000000000000000000000000000000081525060200191505060405180910390fd5b6000600281111561090b57fe5b600960149054906101000a900460ff16600281111561092657fe5b1461097c576040517f08c379a0000000000000000000000000000000000000000000000000000000008152600401808060200182810382526021815260200180610d3d6021913960400191505060405180910390fd5b60083390806001815401808255809150509060018203906000526020600020016000909192909190916101000a81548173ffffffffffffffffffffffffffffffffffffffff021916908373ffffffffffffffffffffffffffffffffffffffff160217905550507f3ac3d20023090ed6961aaf170d74ceded3a1ce92b23deb8e0df0d4d3440b186c33604051808273ffffffffffffffffffffffffffffffffffffffff1673ffffffffffffffffffffffffffffffffffffffff16815260200191505060405180910390a1565b60016002811115610a5457fe5b600960149054906101000a900460ff166002811115610a6f57fe5b14610ac5576040517f08c379a0000000000000000000000000000000000000000000000000000000008152600401808060200182810382526029815260200180610d5e6029913960400191505060405180910390fd5b600960009054906101000a900473ffffffffffffffffffffffffffffffffffffffff1673ffffffffffffffffffffffffffffffffffffffff163373ffffffffffffffffffffffffffffffffffffffff1614610b88576040517f08c379a00000000000000000000000000000000000000000000000000000000081526004018080602001828103825260188152602001807f43616c6c6572206973206e6f74207468652077696e6e6572000000000000000081525060200191505060405180910390fd5b6002600960146101000a81548160ff02191690836002811115610ba757fe5b02179055503373ffffffffffffffffffffffffffffffffffffffff166108fc6007549081150290604051600060405180830381858888f19350505050158015610bf4573d6000803e3d6000fd5b507f28ada6009aa6a16ffab5c7cad39926ce841e25f5b3886d405a11d0e3c1ac204e33604051808273ffffffffffffffffffffffffffffffffffffffff1673ffffffffffffffffffffffffffffffffffffffff16815260200191505060405180910390a1565b6000600560009054906101000a900473ffffffffffffffffffffffffffffffffffffffff16905090565b60606008805480602002602001604051908101604052809291908181526020018280548015610d0857602002820191906000526020600020905b8160009054906101000a900473ffffffffffffffffffffffffffffffffffffffff1673ffffffffffffffffffffffffffffffffffffffff1681526020019060010190808311610cbe575b5050505050905090565b6000600960009054906101000a900473ffffffffffffffffffffffffffffffffffffffff1690509056fe53776565707374616b65206973206e6f74206f70656e656420746f20656e74657257696e6e6572206973206e6f742073656c656374656420666f72207468652053776565707374616b6554686572652773206e6f20706c6179657220696e20746869732073776565707374616b65a165627a7a72305820c5cfb881710f83afa67abd14651e43e9e809f2b714a39548b1f74ffbb8c3272c0029",
  "source": "pragma solidity ^0.5.0;\n\nimport \"./provableAPI.sol\";\n\ncontract Sweepstake is usingProvable {\n    address owner;          // address of owner\n    string name;            // name of sweepstake\n    uint prize;             // prize of sweepstake\n    address[] players;      // all player that entered the sweepstake\n    address winner;         // winner selected\n    State state;            // state of the contract\n\n    // 3 states for a contract, open to enter, winner is selected, prize is claimed\n    enum State {Opened, Selected, Claimed}\n\n    event LogOpened (string _name);\n    event LogSelected (address _player);\n    event LogClaimed (address _player);\n    event LogEntered (address _player);\n    event LogRandomNumber(uint _number);\n\n    /// @notice create a new sweepstake\n    /// @param _name name of the sweepstake\n    /// @param _prize the prize of the prize\n    /// @dev emit LogOpened event\n    constructor (string memory _name, uint _prize)\n        public\n    {\n        owner = msg.sender;\n        name = _name;\n        prize = _prize;\n        state = State.Opened;\n        emit LogOpened(name);\n    }\n    function() external payable {}\n\n    /// @notice check if caller is owner\n    modifier isOwner() {\n        require (\n            msg.sender == owner,\n            \"Caller is not owner\"\n        );\n        _;\n    }\n\n    /// @notice check if caller is not owner\n    modifier isNotOwner() {\n        require (\n            msg.sender != owner,\n            \"Caller is owner\"\n        );\n        _;\n    }\n\n    /// @notice check if sweepstake is opened to enter\n    modifier isOpened() {\n        require (\n            state == State.Opened,\n            \"Sweepstake is not opened to enter\"\n        );\n        _;\n    }\n\n    /// @notice check if winner is selected\n    modifier isSelected() {\n        require (\n            state == State.Selected,\n            \"Winner is not selected for the Sweepstake\"\n        );\n        _;\n    }\n\n    /// @notice check if caller is winner\n    modifier isWinner() {\n        require (\n            msg.sender == winner,\n            \"Caller is not the winner\"\n        );\n        _;\n    }\n\n    /// @notice check if sweepstake has players entered\n    modifier hasPlayers() {\n        require (\n            players.length > 0,\n            \"There's no player in this sweepstake\"\n        );\n        _;\n    }\n\n    /// @notice caller can enter sweepstake\n    /// @dev emit LogEntered event\n    function enterSweepstake()\n        public\n        isNotOwner\n        isOpened\n    {\n        players.push(msg.sender);\n        emit LogEntered(msg.sender);\n    }\n\n    /// @notice select winner\n    /// @dev emit LogSelected event\n    function selectWinner()\n        public\n        isOwner\n        isOpened\n        hasPlayers\n    {\n        // random drawing from players\n        /*\n        provable_setProof(proofType_Ledger);\n        bytes32 _result = provable_newRandomDSQuery(0,7,200000);\n        uint randomNumber = uint256(keccak256(abi.encodePacked(_result))) % (players.length-1);\n        */\n        uint randomNumber = uint(keccak256(abi.encodePacked(now, msg.sender, block.difficulty))) % players.length;\n        winner = players[randomNumber];\n\n        state = State.Selected;\n        emit LogSelected(winner);\n        emit LogRandomNumber(randomNumber);\n    }\n\n    /// @notice return owner of the sweepstake\n    /// @return sweepstake owner address\n    function getOwner()\n        public\n        view\n        returns (address)\n    {\n        return owner;\n    }\n\n    /// @notice get winner of the sweepstake\n    /// @return sweepstake winner address\n    function getWinner()\n        public\n        view\n        returns (address)\n    {\n        return winner;\n    }\n\n    /// @notice get players that entered into the sweepstake\n    /// @return players\n    function getPlayers()\n        public\n        view\n        returns (address[] memory)\n    {\n        return players;\n    }\n\n    /// @notice caller can claim prize of sweepstake\n    /// @dev emit LogClaimed event\n    function claimPrize()\n        public\n        payable\n        isSelected\n        isWinner\n    {\n        state = State.Claimed;\n        msg.sender.transfer(prize);\n        emit LogClaimed(msg.sender);\n    }\n\n    /// @notice return balance of sweepstake\n    /// @return balance of sweepstake\n    function getBalance()\n        public\n        view\n        returns (uint)\n    {\n        return address(this).balance;\n    }\n}",
  "sourcePath": "/Users/csu/dev/sweepstakes_bak/contracts/Sweepstake.sol",
  "compiler": {
    "name": "solc",
    "version": "0.5.8+commit.23d335f2.Emscripten.clang"
  },
  "schemaVersion": "3.0.11",
  "updatedAt": "2019-07-29T04:41:12.926Z",
  "devdoc": {
    "methods": {
      "__callback(bytes32,string)": {
        "details": "The following `__callback` functions are just placeholders ideally\r     meant to be defined in child contract when proofs are used.\r     The function bodies simply silence compiler warnings.\r"
      },
      "claimPrize()": {
        "details": "emit LogClaimed event"
      },
      "constructor": {
        "details": "emit LogOpened event",
        "params": {
          "_name": "name of the sweepstake",
          "_prize": "the prize of the prize"
        }
      },
      "enterSweepstake()": {
        "details": "emit LogEntered event"
      },
      "getBalance()": {
        "return": "balance of sweepstake"
      },
      "getOwner()": {
        "return": "sweepstake owner address"
      },
      "getPlayers()": {
        "return": "players"
      },
      "getWinner()": {
        "return": "sweepstake winner address"
      },
      "selectWinner()": {
        "details": "emit LogSelected event"
      }
    }
  },
  "userdoc": {
    "methods": {
      "claimPrize()": {
        "notice": "caller can claim prize of sweepstake"
      },
      "constructor": "create a new sweepstake",
      "enterSweepstake()": {
        "notice": "caller can enter sweepstake"
      },
      "getBalance()": {
        "notice": "return balance of sweepstake"
      },
      "getOwner()": {
        "notice": "return owner of the sweepstake"
      },
      "getPlayers()": {
        "notice": "get players that entered into the sweepstake"
      },
      "getWinner()": {
        "notice": "get winner of the sweepstake"
      },
      "selectWinner()": {
        "notice": "select winner"
      }
    }
  }
}