{
  "contractName": "SweepstakeFactory",
  "abi": [
    {
      "constant": false,
      "inputs": [],
      "name": "unpause",
      "outputs": [],
      "payable": false,
      "stateMutability": "nonpayable",
      "type": "function"
    },
    {
      "constant": true,
      "inputs": [
        {
          "name": "account",
          "type": "address"
        }
      ],
      "name": "isPauser",
      "outputs": [
        {
          "name": "",
          "type": "bool"
        }
      ],
      "payable": false,
      "stateMutability": "view",
      "type": "function"
    },
    {
      "constant": true,
      "inputs": [],
      "name": "paused",
      "outputs": [
        {
          "name": "",
          "type": "bool"
        }
      ],
      "payable": false,
      "stateMutability": "view",
      "type": "function"
    },
    {
      "constant": false,
      "inputs": [],
      "name": "renouncePauser",
      "outputs": [],
      "payable": false,
      "stateMutability": "nonpayable",
      "type": "function"
    },
    {
      "constant": false,
      "inputs": [
        {
          "name": "account",
          "type": "address"
        }
      ],
      "name": "addPauser",
      "outputs": [],
      "payable": false,
      "stateMutability": "nonpayable",
      "type": "function"
    },
    {
      "constant": false,
      "inputs": [],
      "name": "pause",
      "outputs": [],
      "payable": false,
      "stateMutability": "nonpayable",
      "type": "function"
    },
    {
      "inputs": [],
      "payable": false,
      "stateMutability": "nonpayable",
      "type": "constructor"
    },
    {
      "anonymous": false,
      "inputs": [
        {
          "indexed": false,
          "name": "sweepstake",
          "type": "address"
        },
        {
          "indexed": false,
          "name": "numSweepstakes",
          "type": "uint256"
        },
        {
          "indexed": false,
          "name": "sweepstakes",
          "type": "address[]"
        }
      ],
      "name": "LogSweepstakeCreated",
      "type": "event"
    },
    {
      "anonymous": false,
      "inputs": [
        {
          "indexed": false,
          "name": "account",
          "type": "address"
        }
      ],
      "name": "Paused",
      "type": "event"
    },
    {
      "anonymous": false,
      "inputs": [
        {
          "indexed": false,
          "name": "account",
          "type": "address"
        }
      ],
      "name": "Unpaused",
      "type": "event"
    },
    {
      "anonymous": false,
      "inputs": [
        {
          "indexed": true,
          "name": "account",
          "type": "address"
        }
      ],
      "name": "PauserAdded",
      "type": "event"
    },
    {
      "anonymous": false,
      "inputs": [
        {
          "indexed": true,
          "name": "account",
          "type": "address"
        }
      ],
      "name": "PauserRemoved",
      "type": "event"
    },
    {
      "constant": false,
      "inputs": [
        {
          "name": "_name",
          "type": "string"
        }
      ],
      "name": "createSweepstake",
      "outputs": [],
      "payable": true,
      "stateMutability": "payable",
      "type": "function"
    },
    {
      "constant": true,
      "inputs": [],
      "name": "getOwner",
      "outputs": [
        {
          "name": "",
          "type": "address"
        }
      ],
      "payable": false,
      "stateMutability": "view",
      "type": "function"
    },
    {
      "constant": true,
      "inputs": [],
      "name": "getSweepstakes",
      "outputs": [
        {
          "name": "",
          "type": "address[]"
        }
      ],
      "payable": false,
      "stateMutability": "view",
      "type": "function"
    }
  ],
  "bytecode": "0x608060405234801561001057600080fd5b506100203361008060201b60201c565b6000600160006101000a81548160ff021916908315150217905550336001806101000a81548173ffffffffffffffffffffffffffffffffffffffff021916908373ffffffffffffffffffffffffffffffffffffffff160217905550610222565b6100988160006100de60201b61099f1790919060201c565b8073ffffffffffffffffffffffffffffffffffffffff167f6719d08c1888103bea251a4ed56406bd0c3e69723c8a1686e017e7bbe159b6f860405160405180910390a250565b600073ffffffffffffffffffffffffffffffffffffffff168173ffffffffffffffffffffffffffffffffffffffff16141561011857600080fd5b610128828261019060201b60201c565b1561013257600080fd5b60018260000160008373ffffffffffffffffffffffffffffffffffffffff1673ffffffffffffffffffffffffffffffffffffffff16815260200190815260200160002060006101000a81548160ff0219169083151502179055505050565b60008073ffffffffffffffffffffffffffffffffffffffff168273ffffffffffffffffffffffffffffffffffffffff1614156101cb57600080fd5b8260000160008373ffffffffffffffffffffffffffffffffffffffff1673ffffffffffffffffffffffffffffffffffffffff16815260200190815260200160002060009054906101000a900460ff16905092915050565b611ae6806102316000396000f3fe6080604052600436106100855760003560e01c80636ef8d66d116100595780636ef8d66d146101f457806382dc1ec41461020b5780638456cb591461025c578063893d20e814610273578063b83e863d146102ca57610085565b8062eba3041461008a5780633f4ba83a1461014557806346fbf68e1461015c5780635c975abb146101c5575b600080fd5b610143600480360360208110156100a057600080fd5b81019080803590602001906401000000008111156100bd57600080fd5b8201836020820111156100cf57600080fd5b803590602001918460018302840111640100000000831117156100f157600080fd5b91908080601f016020809104026020016040519081016040528093929190818152602001838380828437600081840152601f19601f820116905080830192505050505050509192919290505050610336565b005b34801561015157600080fd5b5061015a610544565b005b34801561016857600080fd5b506101ab6004803603602081101561017f57600080fd5b81019080803573ffffffffffffffffffffffffffffffffffffffff1690602001909291905050506105ef565b604051808215151515815260200191505060405180910390f35b3480156101d157600080fd5b506101da61060c565b604051808215151515815260200191505060405180910390f35b34801561020057600080fd5b50610209610623565b005b34801561021757600080fd5b5061025a6004803603602081101561022e57600080fd5b81019080803573ffffffffffffffffffffffffffffffffffffffff16906020019092919050505061062e565b005b34801561026857600080fd5b5061027161064c565b005b34801561027f57600080fd5b506102886106f7565b604051808273ffffffffffffffffffffffffffffffffffffffff1673ffffffffffffffffffffffffffffffffffffffff16815260200191505060405180910390f35b3480156102d657600080fd5b506102df610720565b6040518080602001828103825283818151815260200191508051906020019060200280838360005b83811015610322578082015181840152602081019050610307565b505050509050019250505060405180910390f35b600160009054906101000a900460ff161561035057600080fd5b60008160405161035f90610a4b565b8080602001828103825283818151815260200191508051906020019080838360005b8381101561039c578082015181840152602081019050610381565b50505050905090810190601f1680156103c95780820380516001836020036101000a031916815260200191505b5092505050604051809103906000f0801580156103ea573d6000803e3d6000fd5b50905060028190806001815401808255809150509060018203906000526020600020016000909192909190916101000a81548173ffffffffffffffffffffffffffffffffffffffff021916908373ffffffffffffffffffffffffffffffffffffffff160217905550507fe99348a8f8c48c4c24e5eacf891114c53fe35af928b79946fd0f587c39f9f149816002805490506002604051808473ffffffffffffffffffffffffffffffffffffffff1673ffffffffffffffffffffffffffffffffffffffff16815260200183815260200180602001828103825283818154815260200191508054801561053057602002820191906000526020600020905b8160009054906101000a900473ffffffffffffffffffffffffffffffffffffffff1673ffffffffffffffffffffffffffffffffffffffff16815260200190600101908083116104e6575b505094505050505060405180910390a15050565b61054d336105ef565b61055657600080fd5b600160009054906101000a900460ff1661056f57600080fd5b6000600160006101000a81548160ff0219169083151502179055507f5db9ee0a495bf2e6ff9c91a7834c1ba4fdd244a5e8aa4e537bd38aeae4b073aa33604051808273ffffffffffffffffffffffffffffffffffffffff1673ffffffffffffffffffffffffffffffffffffffff16815260200191505060405180910390a1565b60006106058260006107ae90919063ffffffff16565b9050919050565b6000600160009054906101000a900460ff16905090565b61062c33610840565b565b610637336105ef565b61064057600080fd5b6106498161089a565b50565b610655336105ef565b61065e57600080fd5b600160009054906101000a900460ff161561067857600080fd5b60018060006101000a81548160ff0219169083151502179055507f62e78cea01bee320cd4e420270b5ea74000d11b0c9f74754ebdbfc544b05a25833604051808273ffffffffffffffffffffffffffffffffffffffff1673ffffffffffffffffffffffffffffffffffffffff16815260200191505060405180910390a1565b60006001809054906101000a900473ffffffffffffffffffffffffffffffffffffffff16905090565b606060028054806020026020016040519081016040528092919081815260200182805480156107a457602002820191906000526020600020905b8160009054906101000a900473ffffffffffffffffffffffffffffffffffffffff1673ffffffffffffffffffffffffffffffffffffffff168152602001906001019080831161075a575b5050505050905090565b60008073ffffffffffffffffffffffffffffffffffffffff168273ffffffffffffffffffffffffffffffffffffffff1614156107e957600080fd5b8260000160008373ffffffffffffffffffffffffffffffffffffffff1673ffffffffffffffffffffffffffffffffffffffff16815260200190815260200160002060009054906101000a900460ff16905092915050565b6108548160006108f490919063ffffffff16565b8073ffffffffffffffffffffffffffffffffffffffff167fcd265ebaf09df2871cc7bd4133404a235ba12eff2041bb89d9c714a2621c7c7e60405160405180910390a250565b6108ae81600061099f90919063ffffffff16565b8073ffffffffffffffffffffffffffffffffffffffff167f6719d08c1888103bea251a4ed56406bd0c3e69723c8a1686e017e7bbe159b6f860405160405180910390a250565b600073ffffffffffffffffffffffffffffffffffffffff168173ffffffffffffffffffffffffffffffffffffffff16141561092e57600080fd5b61093882826107ae565b61094157600080fd5b60008260000160008373ffffffffffffffffffffffffffffffffffffffff1673ffffffffffffffffffffffffffffffffffffffff16815260200190815260200160002060006101000a81548160ff0219169083151502179055505050565b600073ffffffffffffffffffffffffffffffffffffffff168173ffffffffffffffffffffffffffffffffffffffff1614156109d957600080fd5b6109e382826107ae565b156109ed57600080fd5b60018260000160008373ffffffffffffffffffffffffffffffffffffffff1673ffffffffffffffffffffffffffffffffffffffff16815260200190815260200160002060006101000a81548160ff0219169083151502179055505050565b61106280610a598339019056fe60806040526040516200106238038062001062833981018060405260208110156200002957600080fd5b8101908080516401000000008111156200004257600080fd5b828101905060208101848111156200005957600080fd5b81518560018202830111640100000000821117156200007757600080fd5b505092919050505033600560006101000a81548173ffffffffffffffffffffffffffffffffffffffff021916908373ffffffffffffffffffffffffffffffffffffffff1602179055508060069080519060200190620000d8929190620001ca565b50346007819055506000600960146101000a81548160ff021916908360028111156200010057fe5b02179055507f2e01f2236e12f88dec9f1ed86d70b02e106bbbdb566a1bf101f117ebb218279660066040518080602001828103825283818154600181600116156101000203166002900481526020019150805460018160011615610100020316600290048015620001b55780601f106200018957610100808354040283529160200191620001b5565b820191906000526020600020905b8154815290600101906020018083116200019757829003601f168201915b50509250505060405180910390a15062000279565b828054600181600116156101000203166002900490600052602060002090601f016020900481019282601f106200020d57805160ff19168380011785556200023e565b828001600101855582156200023e579182015b828111156200023d57825182559160200191906001019062000220565b5b5090506200024d919062000251565b5090565b6200027691905b808211156200027257600081600090555060010162000258565b5090565b90565b610dd980620002896000396000f3fe6080604052600436106100865760003560e01c80635e105118116100595780635e1051181461030857806370740ac91461031f578063893d20e8146103295780638b5b9ccc146103805780638e7ea5b2146103ec57610086565b806312065fe01461008b57806327dc297e146100b657806333a99e041461018857806338bbfa501461019f575b600080fd5b34801561009757600080fd5b506100a0610443565b6040518082815260200191505060405180910390f35b3480156100c257600080fd5b50610186600480360360408110156100d957600080fd5b81019080803590602001909291908035906020019064010000000081111561010057600080fd5b82018360208201111561011257600080fd5b8035906020019184600183028401116401000000008311171561013457600080fd5b91908080601f016020809104026020016040519081016040528093929190818152602001838380828437600081840152601f19601f820116905080830192505050505050509192919290505050610462565b005b34801561019457600080fd5b5061019d6104a5565b005b3480156101ab57600080fd5b50610306600480360360608110156101c257600080fd5b8101908080359060200190929190803590602001906401000000008111156101e957600080fd5b8201836020820111156101fb57600080fd5b8035906020019184600183028401116401000000008311171561021d57600080fd5b91908080601f016020809104026020016040519081016040528093929190818152602001838380828437600081840152601f19601f8201169050808301925050505050505091929192908035906020019064010000000081111561028057600080fd5b82018360208201111561029257600080fd5b803590602001918460018302840111640100000000831117156102b457600080fd5b91908080601f016020809104026020016040519081016040528093929190818152602001838380828437600081840152601f19601f82011690508083019250505050505050919291929050505061081a565b005b34801561031457600080fd5b5061031d61083d565b005b610327610a4a565b005b34801561033557600080fd5b5061033e610c5d565b604051808273ffffffffffffffffffffffffffffffffffffffff1673ffffffffffffffffffffffffffffffffffffffff16815260200191505060405180910390f35b34801561038c57600080fd5b50610395610c87565b6040518080602001828103825283818151815260200191508051906020019060200280838360005b838110156103d85780820151818401526020810190506103bd565b505050509050019250505060405180910390f35b3480156103f857600080fd5b50610401610d15565b604051808273ffffffffffffffffffffffffffffffffffffffff1673ffffffffffffffffffffffffffffffffffffffff16815260200191505060405180910390f35b60003073ffffffffffffffffffffffffffffffffffffffff1631905090565b6104a1828260006040519080825280601f01601f19166020018201604052801561049b5781602001600182028038833980820191505090505b5061081a565b5050565b600560009054906101000a900473ffffffffffffffffffffffffffffffffffffffff1673ffffffffffffffffffffffffffffffffffffffff163373ffffffffffffffffffffffffffffffffffffffff1614610568576040517f08c379a00000000000000000000000000000000000000000000000000000000081526004018080602001828103825260138152602001807f43616c6c6572206973206e6f74206f776e65720000000000000000000000000081525060200191505060405180910390fd5b6000600281111561057557fe5b600960149054906101000a900460ff16600281111561059057fe5b146105e6576040517f08c379a0000000000000000000000000000000000000000000000000000000008152600401808060200182810382526021815260200180610d406021913960400191505060405180910390fd5b600060088054905011610644576040517f08c379a0000000000000000000000000000000000000000000000000000000008152600401808060200182810382526024815260200180610d8a6024913960400191505060405180910390fd5b6000600880549050423344604051602001808481526020018373ffffffffffffffffffffffffffffffffffffffff1673ffffffffffffffffffffffffffffffffffffffff1660601b815260140182815260200193505050506040516020818303038152906040528051906020012060001c816106bc57fe5b069050600881815481106106cc57fe5b9060005260206000200160009054906101000a900473ffffffffffffffffffffffffffffffffffffffff16600960006101000a81548173ffffffffffffffffffffffffffffffffffffffff021916908373ffffffffffffffffffffffffffffffffffffffff1602179055506001600960146101000a81548160ff0219169083600281111561075657fe5b02179055507ff154de07b46369267ad5acd9c4755862e503506514727e21e18319e8f9d83945600960009054906101000a900473ffffffffffffffffffffffffffffffffffffffff16604051808273ffffffffffffffffffffffffffffffffffffffff1673ffffffffffffffffffffffffffffffffffffffff16815260200191505060405180910390a17f4034cea00588331775106b3bb0531716336a0091d3134d70f70abc1208b4070b816040518082815260200191505060405180910390a150565b6000801b600360008060001b815260200190815260200160002081905550505050565b600560009054906101000a900473ffffffffffffffffffffffffffffffffffffffff1673ffffffffffffffffffffffffffffffffffffffff163373ffffffffffffffffffffffffffffffffffffffff161415610901576040517f08c379a000000000000000000000000000000000000000000000000000000000815260040180806020018281038252600f8152602001807f43616c6c6572206973206f776e6572000000000000000000000000000000000081525060200191505060405180910390fd5b6000600281111561090e57fe5b600960149054906101000a900460ff16600281111561092957fe5b1461097f576040517f08c379a0000000000000000000000000000000000000000000000000000000008152600401808060200182810382526021815260200180610d406021913960400191505060405180910390fd5b60083390806001815401808255809150509060018203906000526020600020016000909192909190916101000a81548173ffffffffffffffffffffffffffffffffffffffff021916908373ffffffffffffffffffffffffffffffffffffffff160217905550507f3ac3d20023090ed6961aaf170d74ceded3a1ce92b23deb8e0df0d4d3440b186c33604051808273ffffffffffffffffffffffffffffffffffffffff1673ffffffffffffffffffffffffffffffffffffffff16815260200191505060405180910390a1565b60016002811115610a5757fe5b600960149054906101000a900460ff166002811115610a7257fe5b14610ac8576040517f08c379a0000000000000000000000000000000000000000000000000000000008152600401808060200182810382526029815260200180610d616029913960400191505060405180910390fd5b600960009054906101000a900473ffffffffffffffffffffffffffffffffffffffff1673ffffffffffffffffffffffffffffffffffffffff163373ffffffffffffffffffffffffffffffffffffffff1614610b8b576040517f08c379a00000000000000000000000000000000000000000000000000000000081526004018080602001828103825260188152602001807f43616c6c6572206973206e6f74207468652077696e6e6572000000000000000081525060200191505060405180910390fd5b6002600960146101000a81548160ff02191690836002811115610baa57fe5b02179055503373ffffffffffffffffffffffffffffffffffffffff166108fc6007549081150290604051600060405180830381858888f19350505050158015610bf7573d6000803e3d6000fd5b507f28ada6009aa6a16ffab5c7cad39926ce841e25f5b3886d405a11d0e3c1ac204e33604051808273ffffffffffffffffffffffffffffffffffffffff1673ffffffffffffffffffffffffffffffffffffffff16815260200191505060405180910390a1565b6000600560009054906101000a900473ffffffffffffffffffffffffffffffffffffffff16905090565b60606008805480602002602001604051908101604052809291908181526020018280548015610d0b57602002820191906000526020600020905b8160009054906101000a900473ffffffffffffffffffffffffffffffffffffffff1673ffffffffffffffffffffffffffffffffffffffff1681526020019060010190808311610cc1575b5050505050905090565b6000600960009054906101000a900473ffffffffffffffffffffffffffffffffffffffff1690509056fe53776565707374616b65206973206e6f74206f70656e656420746f20656e74657257696e6e6572206973206e6f742073656c656374656420666f72207468652053776565707374616b6554686572652773206e6f20706c6179657220696e20746869732073776565707374616b65a165627a7a7230582050799ee02c70a6d9abb3f632511a0acd2a08fb03732e31eb6eb76c6afd2f255c0029a165627a7a723058205bae77ba052b56cacd9ff771cdb75f3a7af46c51553679d33435f24c145413350029",
  "source": "pragma solidity ^0.5.0;\nimport \"./Sweepstake.sol\";\nimport \"openzeppelin-solidity/contracts/lifecycle/Pausable.sol\";\ncontract SweepstakeFactory is Pausable {\n\n    address owner;\n    /// array for all of the sweepstakes created\n    address[] sweepstakes;\n\n    constructor ()\n        public\n    {\n        owner = msg.sender;\n    }\n\n    /// @dev log when a sweepstake is created\n    /// @param sweepstake of created sweepstake\n    /// @param numSweepstakes The number of sweepstakes\n    /// @param sweepstakes All sweepstakes in the system\n    event LogSweepstakeCreated(address sweepstake, uint numSweepstakes, address[] sweepstakes);\n\n    /// @notice factory method to create a new Sweepstake contract\n    /// @param _name The sweepstake's name\n    /// @dev emit LogSweepstakeCreated event\n    function createSweepstake(string memory _name)\n        public\n        payable\n        whenNotPaused\n    {\n        Sweepstake theSweepstake = new Sweepstake(_name);\n        sweepstakes.push(address(theSweepstake));\n        emit LogSweepstakeCreated(address(theSweepstake), sweepstakes.length, sweepstakes);\n    }\n\n    /// @notice get owner\n    /// @return return owner address\n    function getOwner()\n        public\n        view\n        returns (address)\n    {\n        return owner;\n    }\n\n    /// @notice get all sweepstakes\n    /// @return array of sweepstakes\n    function getSweepstakes()\n        public\n        view\n        returns (address[] memory)\n    {\n        return sweepstakes;\n    }\n}",
  "sourcePath": "/Users/csu/dev/sweepstake/contracts/SweepstakeFactory.sol",
  "compiler": {
    "name": "solc",
    "version": "0.5.8+commit.23d335f2.Emscripten.clang"
  },
  "schemaVersion": "3.0.11",
  "updatedAt": "2019-07-28T21:51:24.720Z",
  "devdoc": {
    "methods": {
      "createSweepstake(string)": {
        "details": "emit LogSweepstakeCreated event",
        "params": {
          "_name": "The sweepstake's name"
        }
      },
      "getOwner()": {
        "return": "return owner address"
      },
      "getSweepstakes()": {
        "return": "array of sweepstakes"
      },
      "pause()": {
        "details": "called by the owner to pause, triggers stopped state"
      },
      "paused()": {
        "return": "true if the contract is paused, false otherwise."
      },
      "unpause()": {
        "details": "called by the owner to unpause, returns to normal state"
      }
    }
  },
  "userdoc": {
    "methods": {
      "createSweepstake(string)": {
        "notice": "factory method to create a new Sweepstake contract"
      },
      "getOwner()": {
        "notice": "get owner"
      },
      "getSweepstakes()": {
        "notice": "get all sweepstakes"
      }
    }
  }
}